{
  "_format": "hh-sol-artifact-1",
  "contractName": "Certificate",
  "sourceName": "contracts/Certificate.sol",
  "abi": [
    {
      "inputs": [
        {
          "internalType": "address",
          "name": "_adminAddress",
          "type": "address"
        },
        {
          "internalType": "string",
          "name": "_baseURI_",
          "type": "string"
        }
      ],
      "stateMutability": "nonpayable",
      "type": "constructor"
    },
    {
      "anonymous": false,
      "inputs": [
        {
          "indexed": true,
          "internalType": "address",
          "name": "owner",
          "type": "address"
        },
        {
          "indexed": true,
          "internalType": "address",
          "name": "approved",
          "type": "address"
        },
        {
          "indexed": true,
          "internalType": "uint256",
          "name": "tokenId",
          "type": "uint256"
        }
      ],
      "name": "Approval",
      "type": "event"
    },
    {
      "anonymous": false,
      "inputs": [
        {
          "indexed": true,
          "internalType": "address",
          "name": "owner",
          "type": "address"
        },
        {
          "indexed": true,
          "internalType": "address",
          "name": "operator",
          "type": "address"
        },
        {
          "indexed": false,
          "internalType": "bool",
          "name": "approved",
          "type": "bool"
        }
      ],
      "name": "ApprovalForAll",
      "type": "event"
    },
    {
      "anonymous": false,
      "inputs": [
        {
          "indexed": true,
          "internalType": "address",
          "name": "previousOwner",
          "type": "address"
        },
        {
          "indexed": true,
          "internalType": "address",
          "name": "newOwner",
          "type": "address"
        }
      ],
      "name": "OwnershipTransferred",
      "type": "event"
    },
    {
      "anonymous": false,
      "inputs": [
        {
          "indexed": true,
          "internalType": "address",
          "name": "from",
          "type": "address"
        },
        {
          "indexed": true,
          "internalType": "address",
          "name": "to",
          "type": "address"
        },
        {
          "indexed": true,
          "internalType": "uint256",
          "name": "tokenId",
          "type": "uint256"
        }
      ],
      "name": "Transfer",
      "type": "event"
    },
    {
      "inputs": [
        {
          "internalType": "uint256",
          "name": "_studentId",
          "type": "uint256"
        },
        {
          "internalType": "address",
          "name": "_studentAddress",
          "type": "address"
        },
        {
          "internalType": "string",
          "name": "_studentCourse",
          "type": "string"
        },
        {
          "internalType": "string",
          "name": "_studentGPA",
          "type": "string"
        }
      ],
      "name": "addStudentInfo",
      "outputs": [],
      "stateMutability": "nonpayable",
      "type": "function"
    },
    {
      "inputs": [],
      "name": "adminAddress",
      "outputs": [
        {
          "internalType": "address",
          "name": "",
          "type": "address"
        }
      ],
      "stateMutability": "view",
      "type": "function"
    },
    {
      "inputs": [
        {
          "internalType": "address",
          "name": "to",
          "type": "address"
        },
        {
          "internalType": "uint256",
          "name": "tokenId",
          "type": "uint256"
        }
      ],
      "name": "approve",
      "outputs": [],
      "stateMutability": "nonpayable",
      "type": "function"
    },
    {
      "inputs": [
        {
          "internalType": "address",
          "name": "owner",
          "type": "address"
        }
      ],
      "name": "balanceOf",
      "outputs": [
        {
          "internalType": "uint256",
          "name": "",
          "type": "uint256"
        }
      ],
      "stateMutability": "view",
      "type": "function"
    },
    {
      "inputs": [],
      "name": "baseExtension",
      "outputs": [
        {
          "internalType": "string",
          "name": "",
          "type": "string"
        }
      ],
      "stateMutability": "view",
      "type": "function"
    },
    {
      "inputs": [],
      "name": "baseURI",
      "outputs": [
        {
          "internalType": "string",
          "name": "",
          "type": "string"
        }
      ],
      "stateMutability": "view",
      "type": "function"
    },
    {
      "inputs": [
        {
          "internalType": "address",
          "name": "_newAdmin",
          "type": "address"
        }
      ],
      "name": "changeAdmin",
      "outputs": [],
      "stateMutability": "nonpayable",
      "type": "function"
    },
    {
      "inputs": [
        {
          "internalType": "uint256",
          "name": "tokenId",
          "type": "uint256"
        }
      ],
      "name": "getApproved",
      "outputs": [
        {
          "internalType": "address",
          "name": "",
          "type": "address"
        }
      ],
      "stateMutability": "view",
      "type": "function"
    },
    {
      "inputs": [
        {
          "internalType": "address",
          "name": "owner",
          "type": "address"
        },
        {
          "internalType": "address",
          "name": "operator",
          "type": "address"
        }
      ],
      "name": "isApprovedForAll",
      "outputs": [
        {
          "internalType": "bool",
          "name": "",
          "type": "bool"
        }
      ],
      "stateMutability": "view",
      "type": "function"
    },
    {
      "inputs": [
        {
          "internalType": "address",
          "name": "",
          "type": "address"
        }
      ],
      "name": "isMinted",
      "outputs": [
        {
          "internalType": "bool",
          "name": "",
          "type": "bool"
        }
      ],
      "stateMutability": "view",
      "type": "function"
    },
    {
      "inputs": [
        {
          "internalType": "address",
          "name": "",
          "type": "address"
        }
      ],
      "name": "isStudent",
      "outputs": [
        {
          "internalType": "bool",
          "name": "",
          "type": "bool"
        }
      ],
      "stateMutability": "view",
      "type": "function"
    },
    {
      "inputs": [],
      "name": "mint",
      "outputs": [
        {
          "internalType": "bool",
          "name": "",
          "type": "bool"
        }
      ],
      "stateMutability": "nonpayable",
      "type": "function"
    },
    {
      "inputs": [],
      "name": "name",
      "outputs": [
        {
          "internalType": "string",
          "name": "",
          "type": "string"
        }
      ],
      "stateMutability": "view",
      "type": "function"
    },
    {
      "inputs": [],
      "name": "owner",
      "outputs": [
        {
          "internalType": "address",
          "name": "",
          "type": "address"
        }
      ],
      "stateMutability": "view",
      "type": "function"
    },
    {
      "inputs": [
        {
          "internalType": "uint256",
          "name": "tokenId",
          "type": "uint256"
        }
      ],
      "name": "ownerOf",
      "outputs": [
        {
          "internalType": "address",
          "name": "",
          "type": "address"
        }
      ],
      "stateMutability": "view",
      "type": "function"
    },
    {
      "inputs": [],
      "name": "renounceOwnership",
      "outputs": [],
      "stateMutability": "nonpayable",
      "type": "function"
    },
    {
      "inputs": [
        {
          "internalType": "address",
          "name": "to",
          "type": "address"
        },
        {
          "internalType": "uint256",
          "name": "tokenId",
          "type": "uint256"
        }
      ],
      "name": "safeMint",
      "outputs": [],
      "stateMutability": "nonpayable",
      "type": "function"
    },
    {
      "inputs": [
        {
          "internalType": "address",
          "name": "from",
          "type": "address"
        },
        {
          "internalType": "address",
          "name": "to",
          "type": "address"
        },
        {
          "internalType": "uint256",
          "name": "tokenId",
          "type": "uint256"
        }
      ],
      "name": "safeTransferFrom",
      "outputs": [],
      "stateMutability": "nonpayable",
      "type": "function"
    },
    {
      "inputs": [
        {
          "internalType": "address",
          "name": "from",
          "type": "address"
        },
        {
          "internalType": "address",
          "name": "to",
          "type": "address"
        },
        {
          "internalType": "uint256",
          "name": "tokenId",
          "type": "uint256"
        },
        {
          "internalType": "bytes",
          "name": "data",
          "type": "bytes"
        }
      ],
      "name": "safeTransferFrom",
      "outputs": [],
      "stateMutability": "nonpayable",
      "type": "function"
    },
    {
      "inputs": [
        {
          "internalType": "address",
          "name": "operator",
          "type": "address"
        },
        {
          "internalType": "bool",
          "name": "approved",
          "type": "bool"
        }
      ],
      "name": "setApprovalForAll",
      "outputs": [],
      "stateMutability": "nonpayable",
      "type": "function"
    },
    {
      "inputs": [
        {
          "internalType": "string",
          "name": "_newBaseURI",
          "type": "string"
        }
      ],
      "name": "setBaseURI",
      "outputs": [],
      "stateMutability": "nonpayable",
      "type": "function"
    },
    {
      "inputs": [
        {
          "internalType": "address",
          "name": "",
          "type": "address"
        }
      ],
      "name": "studentInfo",
      "outputs": [
        {
          "internalType": "uint256",
          "name": "studentId",
          "type": "uint256"
        },
        {
          "internalType": "address",
          "name": "studentAddress",
          "type": "address"
        },
        {
          "internalType": "string",
          "name": "studentCourse",
          "type": "string"
        },
        {
          "internalType": "string",
          "name": "studentGPA",
          "type": "string"
        }
      ],
      "stateMutability": "view",
      "type": "function"
    },
    {
      "inputs": [
        {
          "internalType": "bytes4",
          "name": "interfaceId",
          "type": "bytes4"
        }
      ],
      "name": "supportsInterface",
      "outputs": [
        {
          "internalType": "bool",
          "name": "",
          "type": "bool"
        }
      ],
      "stateMutability": "view",
      "type": "function"
    },
    {
      "inputs": [],
      "name": "symbol",
      "outputs": [
        {
          "internalType": "string",
          "name": "",
          "type": "string"
        }
      ],
      "stateMutability": "view",
      "type": "function"
    },
    {
      "inputs": [
        {
          "internalType": "uint256",
          "name": "tokenID",
          "type": "uint256"
        }
      ],
      "name": "tokenURI",
      "outputs": [
        {
          "internalType": "string",
          "name": "",
          "type": "string"
        }
      ],
      "stateMutability": "view",
      "type": "function"
    },
    {
      "inputs": [],
      "name": "totalSupply",
      "outputs": [
        {
          "internalType": "uint256",
          "name": "",
          "type": "uint256"
        }
      ],
      "stateMutability": "view",
      "type": "function"
    },
    {
      "inputs": [
        {
          "internalType": "address",
          "name": "from",
          "type": "address"
        },
        {
          "internalType": "address",
          "name": "to",
          "type": "address"
        },
        {
          "internalType": "uint256",
          "name": "tokenId",
          "type": "uint256"
        }
      ],
      "name": "transferFrom",
      "outputs": [],
      "stateMutability": "nonpayable",
      "type": "function"
    },
    {
      "inputs": [
        {
          "internalType": "address",
          "name": "newOwner",
          "type": "address"
        }
      ],
      "name": "transferOwnership",
      "outputs": [],
      "stateMutability": "nonpayable",
      "type": "function"
    }
  ],
  "bytecode": "0x60806040526040518060400160405280600581526020017f2e6a736f6e000000000000000000000000000000000000000000000000000000815250600a90816200004a9190620004d3565b503480156200005857600080fd5b50604051620042ba380380620042ba83398181016040528101906200007e919062000783565b6040518060400160405280600b81526020017f43657274696669636174650000000000000000000000000000000000000000008152506040518060400160405280600481526020017f43525446000000000000000000000000000000000000000000000000000000008152508160009081620000fb9190620004d3565b5080600190816200010d9190620004d3565b50505062000130620001246200018b60201b60201c565b6200019360201b60201c565b81600760006101000a81548173ffffffffffffffffffffffffffffffffffffffff021916908373ffffffffffffffffffffffffffffffffffffffff1602179055508060099081620001829190620004d3565b505050620007e9565b600033905090565b6000600660009054906101000a900473ffffffffffffffffffffffffffffffffffffffff16905081600660006101000a81548173ffffffffffffffffffffffffffffffffffffffff021916908373ffffffffffffffffffffffffffffffffffffffff1602179055508173ffffffffffffffffffffffffffffffffffffffff168173ffffffffffffffffffffffffffffffffffffffff167f8be0079c531659141344cd1fd0a4f28419497f9722a3daafe3b4186f6b6457e060405160405180910390a35050565b600081519050919050565b7f4e487b7100000000000000000000000000000000000000000000000000000000600052604160045260246000fd5b7f4e487b7100000000000000000000000000000000000000000000000000000000600052602260045260246000fd5b60006002820490506001821680620002db57607f821691505b602082108103620002f157620002f062000293565b5b50919050565b60008190508160005260206000209050919050565b60006020601f8301049050919050565b600082821b905092915050565b6000600883026200035b7fffffffffffffffffffffffffffffffffffffffffffffffffffffffffffffffff826200031c565b6200036786836200031c565b95508019841693508086168417925050509392505050565b6000819050919050565b6000819050919050565b6000620003b4620003ae620003a8846200037f565b62000389565b6200037f565b9050919050565b6000819050919050565b620003d08362000393565b620003e8620003df82620003bb565b84845462000329565b825550505050565b600090565b620003ff620003f0565b6200040c818484620003c5565b505050565b5b81811015620004345762000428600082620003f5565b60018101905062000412565b5050565b601f82111562000483576200044d81620002f7565b62000458846200030c565b8101602085101562000468578190505b6200048062000477856200030c565b83018262000411565b50505b505050565b600082821c905092915050565b6000620004a86000198460080262000488565b1980831691505092915050565b6000620004c3838362000495565b9150826002028217905092915050565b620004de8262000259565b67ffffffffffffffff811115620004fa57620004f962000264565b5b620005068254620002c2565b6200051382828562000438565b600060209050601f8311600181146200054b576000841562000536578287015190505b620005428582620004b5565b865550620005b2565b601f1984166200055b86620002f7565b60005b8281101562000585578489015182556001820191506020850194506020810190506200055e565b86831015620005a55784890151620005a1601f89168262000495565b8355505b6001600288020188555050505b505050505050565b6000604051905090565b600080fd5b600080fd5b600073ffffffffffffffffffffffffffffffffffffffff82169050919050565b6000620005fb82620005ce565b9050919050565b6200060d81620005ee565b81146200061957600080fd5b50565b6000815190506200062d8162000602565b92915050565b600080fd5b600080fd5b6000601f19601f8301169050919050565b62000659826200063d565b810181811067ffffffffffffffff821117156200067b576200067a62000264565b5b80604052505050565b600062000690620005ba565b90506200069e82826200064e565b919050565b600067ffffffffffffffff821115620006c157620006c062000264565b5b620006cc826200063d565b9050602081019050919050565b60005b83811015620006f9578082015181840152602081019050620006dc565b60008484015250505050565b60006200071c6200071684620006a3565b62000684565b9050828152602081018484840111156200073b576200073a62000638565b5b62000748848285620006d9565b509392505050565b600082601f83011262000768576200076762000633565b5b81516200077a84826020860162000705565b91505092915050565b600080604083850312156200079d576200079c620005c4565b5b6000620007ad858286016200061c565b925050602083015167ffffffffffffffff811115620007d157620007d0620005c9565b5b620007df8582860162000750565b9150509250929050565b613ac180620007f96000396000f3fe608060405234801561001057600080fd5b50600436106101c45760003560e01c806382f7d392116100f9578063b88d4fde11610097578063e985e9c511610071578063e985e9c5146104f4578063f2fde38b14610524578063f9f2a7ce14610540578063fc6f946814610570576101c4565b8063b88d4fde1461048a578063c6682862146104a6578063c87b56dd146104c4576101c4565b806395d89b41116100d357806395d89b41146104185780639d10ce3914610436578063a144819414610452578063a22cb4651461046e576101c4565b806382f7d392146103ae5780638da5cb5b146103de5780638f283970146103fc576101c4565b80633d847dda116101665780636352211e116101405780636352211e146103265780636c0360eb1461035657806370a0823114610374578063715018a6146103a4576101c4565b80633d847dda146102bb57806342842e0e146102ee57806355f804b31461030a576101c4565b8063095ea7b3116101a2578063095ea7b3146102475780631249c58b1461026357806318160ddd1461028157806323b872dd1461029f576101c4565b806301ffc9a7146101c957806306fdde03146101f9578063081812fc14610217575b600080fd5b6101e360048036038101906101de919061259c565b61058e565b6040516101f091906125e4565b60405180910390f35b610201610670565b60405161020e919061268f565b60405180910390f35b610231600480360381019061022c91906126e7565b610702565b60405161023e9190612755565b60405180910390f35b610261600480360381019061025c919061279c565b610748565b005b61026b61085f565b60405161027891906125e4565b60405180910390f35b610289610a45565b60405161029691906127eb565b60405180910390f35b6102b960048036038101906102b49190612806565b610a4b565b005b6102d560048036038101906102d09190612859565b610aab565b6040516102e59493929190612886565b60405180910390f35b61030860048036038101906103039190612806565b610c0b565b005b610324600480360381019061031f9190612a0e565b610c2b565b005b610340600480360381019061033b91906126e7565b610cce565b60405161034d9190612755565b60405180910390f35b61035e610d54565b60405161036b919061268f565b60405180910390f35b61038e60048036038101906103899190612859565b610de2565b60405161039b91906127eb565b60405180910390f35b6103ac610e99565b005b6103c860048036038101906103c39190612859565b610ead565b6040516103d591906125e4565b60405180910390f35b6103e6610ecd565b6040516103f39190612755565b60405180910390f35b61041660048036038101906104119190612859565b610ef7565b005b610420611004565b60405161042d919061268f565b60405180910390f35b610450600480360381019061044b9190612a57565b611096565b005b61046c6004803603810190610467919061279c565b6111f8565b005b61048860048036038101906104839190612b22565b611296565b005b6104a4600480360381019061049f9190612c03565b6112ac565b005b6104ae61130e565b6040516104bb919061268f565b60405180910390f35b6104de60048036038101906104d991906126e7565b61139c565b6040516104eb919061268f565b60405180910390f35b61050e60048036038101906105099190612c86565b611446565b60405161051b91906125e4565b60405180910390f35b61053e60048036038101906105399190612859565b6114da565b005b61055a60048036038101906105559190612859565b61155d565b60405161056791906125e4565b60405180910390f35b61057861157d565b6040516105859190612755565b60405180910390f35b60007f80ac58cd000000000000000000000000000000000000000000000000000000007bffffffffffffffffffffffffffffffffffffffffffffffffffffffff1916827bffffffffffffffffffffffffffffffffffffffffffffffffffffffff1916148061065957507f5b5e139f000000000000000000000000000000000000000000000000000000007bffffffffffffffffffffffffffffffffffffffffffffffffffffffff1916827bffffffffffffffffffffffffffffffffffffffffffffffffffffffff1916145b806106695750610668826115a3565b5b9050919050565b60606000805461067f90612cf5565b80601f01602080910402602001604051908101604052809291908181526020018280546106ab90612cf5565b80156106f85780601f106106cd576101008083540402835291602001916106f8565b820191906000526020600020905b8154815290600101906020018083116106db57829003601f168201915b5050505050905090565b600061070d8261160d565b6004600083815260200190815260200160002060009054906101000a900473ffffffffffffffffffffffffffffffffffffffff169050919050565b600061075382610cce565b90508073ffffffffffffffffffffffffffffffffffffffff168373ffffffffffffffffffffffffffffffffffffffff16036107c3576040517f08c379a00000000000000000000000000000000000000000000000000000000081526004016107ba90612d98565b60405180910390fd5b8073ffffffffffffffffffffffffffffffffffffffff166107e2611658565b73ffffffffffffffffffffffffffffffffffffffff16148061081157506108108161080b611658565b611446565b5b610850576040517f08c379a000000000000000000000000000000000000000000000000000000000815260040161084790612e2a565b60405180910390fd5b61085a8383611660565b505050565b6000600b60003373ffffffffffffffffffffffffffffffffffffffff1673ffffffffffffffffffffffffffffffffffffffff16815260200190815260200160002060009054906101000a900460ff166108ed576040517f08c379a00000000000000000000000000000000000000000000000000000000081526004016108e490612e96565b60405180910390fd5b600c60003373ffffffffffffffffffffffffffffffffffffffff1673ffffffffffffffffffffffffffffffffffffffff16815260200190815260200160002060009054906101000a900460ff161561097a576040517f08c379a000000000000000000000000000000000000000000000000000000000815260040161097190612f02565b60405180910390fd5b6000600d60003373ffffffffffffffffffffffffffffffffffffffff1673ffffffffffffffffffffffffffffffffffffffff1681526020019081526020016000206000015490506109cb33826111f8565b6001600860008282546109de9190612f51565b925050819055506001600c60003373ffffffffffffffffffffffffffffffffffffffff1673ffffffffffffffffffffffffffffffffffffffff16815260200190815260200160002060006101000a81548160ff021916908315150217905550600191505090565b60085481565b610a5c610a56611658565b82611719565b610a9b576040517f08c379a0000000000000000000000000000000000000000000000000000000008152600401610a9290612ff7565b60405180910390fd5b610aa68383836117ae565b505050565b600d6020528060005260406000206000915090508060000154908060010160009054906101000a900473ffffffffffffffffffffffffffffffffffffffff1690806002018054610afa90612cf5565b80601f0160208091040260200160405190810160405280929190818152602001828054610b2690612cf5565b8015610b735780601f10610b4857610100808354040283529160200191610b73565b820191906000526020600020905b815481529060010190602001808311610b5657829003601f168201915b505050505090806003018054610b8890612cf5565b80601f0160208091040260200160405190810160405280929190818152602001828054610bb490612cf5565b8015610c015780601f10610bd657610100808354040283529160200191610c01565b820191906000526020600020905b815481529060010190602001808311610be457829003601f168201915b5050505050905084565b610c26838383604051806020016040528060008152506112ac565b505050565b600760009054906101000a900473ffffffffffffffffffffffffffffffffffffffff1673ffffffffffffffffffffffffffffffffffffffff163373ffffffffffffffffffffffffffffffffffffffff1614610cbb576040517f08c379a0000000000000000000000000000000000000000000000000000000008152600401610cb290613063565b60405180910390fd5b8060099081610cca919061322f565b5050565b600080610cda83611aa7565b9050600073ffffffffffffffffffffffffffffffffffffffff168173ffffffffffffffffffffffffffffffffffffffff1603610d4b576040517f08c379a0000000000000000000000000000000000000000000000000000000008152600401610d429061334d565b60405180910390fd5b80915050919050565b60098054610d6190612cf5565b80601f0160208091040260200160405190810160405280929190818152602001828054610d8d90612cf5565b8015610dda5780601f10610daf57610100808354040283529160200191610dda565b820191906000526020600020905b815481529060010190602001808311610dbd57829003601f168201915b505050505081565b60008073ffffffffffffffffffffffffffffffffffffffff168273ffffffffffffffffffffffffffffffffffffffff1603610e52576040517f08c379a0000000000000000000000000000000000000000000000000000000008152600401610e49906133df565b60405180910390fd5b600360008373ffffffffffffffffffffffffffffffffffffffff1673ffffffffffffffffffffffffffffffffffffffff168152602001908152602001600020549050919050565b610ea1611ae4565b610eab6000611b62565b565b600b6020528060005260406000206000915054906101000a900460ff1681565b6000600660009054906101000a900473ffffffffffffffffffffffffffffffffffffffff16905090565b600760009054906101000a900473ffffffffffffffffffffffffffffffffffffffff1673ffffffffffffffffffffffffffffffffffffffff163373ffffffffffffffffffffffffffffffffffffffff1614610f87576040517f08c379a0000000000000000000000000000000000000000000000000000000008152600401610f7e90613063565b60405180910390fd5b600073ffffffffffffffffffffffffffffffffffffffff168173ffffffffffffffffffffffffffffffffffffffff1603610fc057600080fd5b80600760006101000a81548173ffffffffffffffffffffffffffffffffffffffff021916908373ffffffffffffffffffffffffffffffffffffffff16021790555050565b60606001805461101390612cf5565b80601f016020809104026020016040519081016040528092919081815260200182805461103f90612cf5565b801561108c5780601f106110615761010080835404028352916020019161108c565b820191906000526020600020905b81548152906001019060200180831161106f57829003601f168201915b5050505050905090565b61109e611ae4565b600060405180608001604052808681526020018573ffffffffffffffffffffffffffffffffffffffff16815260200184815260200183815250905080600d60008673ffffffffffffffffffffffffffffffffffffffff1673ffffffffffffffffffffffffffffffffffffffff1681526020019081526020016000206000820151816000015560208201518160010160006101000a81548173ffffffffffffffffffffffffffffffffffffffff021916908373ffffffffffffffffffffffffffffffffffffffff160217905550604082015181600201908161117f919061322f565b506060820151816003019081611195919061322f565b509050506001600b60008673ffffffffffffffffffffffffffffffffffffffff1673ffffffffffffffffffffffffffffffffffffffff16815260200190815260200160002060006101000a81548160ff0219169083151502179055505050505050565b600760009054906101000a900473ffffffffffffffffffffffffffffffffffffffff1673ffffffffffffffffffffffffffffffffffffffff163373ffffffffffffffffffffffffffffffffffffffff1614611288576040517f08c379a000000000000000000000000000000000000000000000000000000000815260040161127f90613063565b60405180910390fd5b6112928282611c28565b5050565b6112a86112a1611658565b8383611c46565b5050565b6112bd6112b7611658565b83611719565b6112fc576040517f08c379a00000000000000000000000000000000000000000000000000000000081526004016112f390612ff7565b60405180910390fd5b61130884848484611db2565b50505050565b600a805461131b90612cf5565b80601f016020809104026020016040519081016040528092919081815260200182805461134790612cf5565b80156113945780601f1061136957610100808354040283529160200191611394565b820191906000526020600020905b81548152906001019060200180831161137757829003601f168201915b505050505081565b60606113a782611e0e565b6113e6576040517f08c379a00000000000000000000000000000000000000000000000000000000081526004016113dd90613471565b60405180910390fd5b60006113f0611e4f565b90506000815111611410576040518060200160405280600081525061143e565b8061141a84611ee1565b600a60405160200161142e93929190613550565b6040516020818303038152906040525b915050919050565b6000600560008473ffffffffffffffffffffffffffffffffffffffff1673ffffffffffffffffffffffffffffffffffffffff16815260200190815260200160002060008373ffffffffffffffffffffffffffffffffffffffff1673ffffffffffffffffffffffffffffffffffffffff16815260200190815260200160002060009054906101000a900460ff16905092915050565b6114e2611ae4565b600073ffffffffffffffffffffffffffffffffffffffff168173ffffffffffffffffffffffffffffffffffffffff1603611551576040517f08c379a0000000000000000000000000000000000000000000000000000000008152600401611548906135f3565b60405180910390fd5b61155a81611b62565b50565b600c6020528060005260406000206000915054906101000a900460ff1681565b600760009054906101000a900473ffffffffffffffffffffffffffffffffffffffff1681565b60007f01ffc9a7000000000000000000000000000000000000000000000000000000007bffffffffffffffffffffffffffffffffffffffffffffffffffffffff1916827bffffffffffffffffffffffffffffffffffffffffffffffffffffffff1916149050919050565b61161681611e0e565b611655576040517f08c379a000000000000000000000000000000000000000000000000000000000815260040161164c9061334d565b60405180910390fd5b50565b600033905090565b816004600083815260200190815260200160002060006101000a81548173ffffffffffffffffffffffffffffffffffffffff021916908373ffffffffffffffffffffffffffffffffffffffff160217905550808273ffffffffffffffffffffffffffffffffffffffff166116d383610cce565b73ffffffffffffffffffffffffffffffffffffffff167f8c5be1e5ebec7d5bd14f71427d1e84f3dd0314c0f7b2291e5b200ac8c7c3b92560405160405180910390a45050565b60008061172583610cce565b90508073ffffffffffffffffffffffffffffffffffffffff168473ffffffffffffffffffffffffffffffffffffffff16148061176757506117668185611446565b5b806117a557508373ffffffffffffffffffffffffffffffffffffffff1661178d84610702565b73ffffffffffffffffffffffffffffffffffffffff16145b91505092915050565b8273ffffffffffffffffffffffffffffffffffffffff166117ce82610cce565b73ffffffffffffffffffffffffffffffffffffffff1614611824576040517f08c379a000000000000000000000000000000000000000000000000000000000815260040161181b90613685565b60405180910390fd5b600073ffffffffffffffffffffffffffffffffffffffff168273ffffffffffffffffffffffffffffffffffffffff1603611893576040517f08c379a000000000000000000000000000000000000000000000000000000000815260040161188a90613717565b60405180910390fd5b6118a08383836001611faf565b8273ffffffffffffffffffffffffffffffffffffffff166118c082610cce565b73ffffffffffffffffffffffffffffffffffffffff1614611916576040517f08c379a000000000000000000000000000000000000000000000000000000000815260040161190d90613685565b60405180910390fd5b6004600082815260200190815260200160002060006101000a81549073ffffffffffffffffffffffffffffffffffffffff02191690556001600360008573ffffffffffffffffffffffffffffffffffffffff1673ffffffffffffffffffffffffffffffffffffffff168152602001908152602001600020600082825403925050819055506001600360008473ffffffffffffffffffffffffffffffffffffffff1673ffffffffffffffffffffffffffffffffffffffff16815260200190815260200160002060008282540192505081905550816002600083815260200190815260200160002060006101000a81548173ffffffffffffffffffffffffffffffffffffffff021916908373ffffffffffffffffffffffffffffffffffffffff160217905550808273ffffffffffffffffffffffffffffffffffffffff168473ffffffffffffffffffffffffffffffffffffffff167fddf252ad1be2c89b69c2b068fc378daa952ba7f163c4a11628f55a4df523b3ef60405160405180910390a4611aa28383836001611fb5565b505050565b60006002600083815260200190815260200160002060009054906101000a900473ffffffffffffffffffffffffffffffffffffffff169050919050565b611aec611658565b73ffffffffffffffffffffffffffffffffffffffff16611b0a610ecd565b73ffffffffffffffffffffffffffffffffffffffff1614611b60576040517f08c379a0000000000000000000000000000000000000000000000000000000008152600401611b5790613783565b60405180910390fd5b565b6000600660009054906101000a900473ffffffffffffffffffffffffffffffffffffffff16905081600660006101000a81548173ffffffffffffffffffffffffffffffffffffffff021916908373ffffffffffffffffffffffffffffffffffffffff1602179055508173ffffffffffffffffffffffffffffffffffffffff168173ffffffffffffffffffffffffffffffffffffffff167f8be0079c531659141344cd1fd0a4f28419497f9722a3daafe3b4186f6b6457e060405160405180910390a35050565b611c42828260405180602001604052806000815250611fbb565b5050565b8173ffffffffffffffffffffffffffffffffffffffff168373ffffffffffffffffffffffffffffffffffffffff1603611cb4576040517f08c379a0000000000000000000000000000000000000000000000000000000008152600401611cab906137ef565b60405180910390fd5b80600560008573ffffffffffffffffffffffffffffffffffffffff1673ffffffffffffffffffffffffffffffffffffffff16815260200190815260200160002060008473ffffffffffffffffffffffffffffffffffffffff1673ffffffffffffffffffffffffffffffffffffffff16815260200190815260200160002060006101000a81548160ff0219169083151502179055508173ffffffffffffffffffffffffffffffffffffffff168373ffffffffffffffffffffffffffffffffffffffff167f17307eab39ab6107e8899845ad3d59bd9653f200f220920489ca2b5937696c3183604051611da591906125e4565b60405180910390a3505050565b611dbd8484846117ae565b611dc984848484612016565b611e08576040517f08c379a0000000000000000000000000000000000000000000000000000000008152600401611dff90613881565b60405180910390fd5b50505050565b60008073ffffffffffffffffffffffffffffffffffffffff16611e3083611aa7565b73ffffffffffffffffffffffffffffffffffffffff1614159050919050565b606060098054611e5e90612cf5565b80601f0160208091040260200160405190810160405280929190818152602001828054611e8a90612cf5565b8015611ed75780601f10611eac57610100808354040283529160200191611ed7565b820191906000526020600020905b815481529060010190602001808311611eba57829003601f168201915b5050505050905090565b606060006001611ef08461219d565b01905060008167ffffffffffffffff811115611f0f57611f0e6128e3565b5b6040519080825280601f01601f191660200182016040528015611f415781602001600182028036833780820191505090505b509050600082602001820190505b600115611fa4578080600190039150507f3031323334353637383961626364656600000000000000000000000000000000600a86061a8153600a8581611f9857611f976138a1565b5b04945060008503611f4f575b819350505050919050565b50505050565b50505050565b611fc583836122f0565b611fd26000848484612016565b612011576040517f08c379a000000000000000000000000000000000000000000000000000000000815260040161200890613881565b60405180910390fd5b505050565b60006120378473ffffffffffffffffffffffffffffffffffffffff1661250d565b15612190578373ffffffffffffffffffffffffffffffffffffffff1663150b7a02612060611658565b8786866040518563ffffffff1660e01b81526004016120829493929190613925565b6020604051808303816000875af19250505080156120be57506040513d601f19601f820116820180604052508101906120bb9190613986565b60015b612140573d80600081146120ee576040519150601f19603f3d011682016040523d82523d6000602084013e6120f3565b606091505b506000815103612138576040517f08c379a000000000000000000000000000000000000000000000000000000000815260040161212f90613881565b60405180910390fd5b805181602001fd5b63150b7a0260e01b7bffffffffffffffffffffffffffffffffffffffffffffffffffffffff1916817bffffffffffffffffffffffffffffffffffffffffffffffffffffffff191614915050612195565b600190505b949350505050565b600080600090507a184f03e93ff9f4daa797ed6e38ed64bf6a1f01000000000000000083106121fb577a184f03e93ff9f4daa797ed6e38ed64bf6a1f01000000000000000083816121f1576121f06138a1565b5b0492506040810190505b6d04ee2d6d415b85acef81000000008310612238576d04ee2d6d415b85acef8100000000838161222e5761222d6138a1565b5b0492506020810190505b662386f26fc10000831061226757662386f26fc10000838161225d5761225c6138a1565b5b0492506010810190505b6305f5e1008310612290576305f5e1008381612286576122856138a1565b5b0492506008810190505b61271083106122b55761271083816122ab576122aa6138a1565b5b0492506004810190505b606483106122d857606483816122ce576122cd6138a1565b5b0492506002810190505b600a83106122e7576001810190505b80915050919050565b600073ffffffffffffffffffffffffffffffffffffffff168273ffffffffffffffffffffffffffffffffffffffff160361235f576040517f08c379a0000000000000000000000000000000000000000000000000000000008152600401612356906139ff565b60405180910390fd5b61236881611e0e565b156123a8576040517f08c379a000000000000000000000000000000000000000000000000000000000815260040161239f90613a6b565b60405180910390fd5b6123b6600083836001611faf565b6123bf81611e0e565b156123ff576040517f08c379a00000000000000000000000000000000000000000000000000000000081526004016123f690613a6b565b60405180910390fd5b6001600360008473ffffffffffffffffffffffffffffffffffffffff1673ffffffffffffffffffffffffffffffffffffffff16815260200190815260200160002060008282540192505081905550816002600083815260200190815260200160002060006101000a81548173ffffffffffffffffffffffffffffffffffffffff021916908373ffffffffffffffffffffffffffffffffffffffff160217905550808273ffffffffffffffffffffffffffffffffffffffff16600073ffffffffffffffffffffffffffffffffffffffff167fddf252ad1be2c89b69c2b068fc378daa952ba7f163c4a11628f55a4df523b3ef60405160405180910390a4612509600083836001611fb5565b5050565b6000808273ffffffffffffffffffffffffffffffffffffffff163b119050919050565b6000604051905090565b600080fd5b600080fd5b60007fffffffff0000000000000000000000000000000000000000000000000000000082169050919050565b61257981612544565b811461258457600080fd5b50565b60008135905061259681612570565b92915050565b6000602082840312156125b2576125b161253a565b5b60006125c084828501612587565b91505092915050565b60008115159050919050565b6125de816125c9565b82525050565b60006020820190506125f960008301846125d5565b92915050565b600081519050919050565b600082825260208201905092915050565b60005b8381101561263957808201518184015260208101905061261e565b60008484015250505050565b6000601f19601f8301169050919050565b6000612661826125ff565b61266b818561260a565b935061267b81856020860161261b565b61268481612645565b840191505092915050565b600060208201905081810360008301526126a98184612656565b905092915050565b6000819050919050565b6126c4816126b1565b81146126cf57600080fd5b50565b6000813590506126e1816126bb565b92915050565b6000602082840312156126fd576126fc61253a565b5b600061270b848285016126d2565b91505092915050565b600073ffffffffffffffffffffffffffffffffffffffff82169050919050565b600061273f82612714565b9050919050565b61274f81612734565b82525050565b600060208201905061276a6000830184612746565b92915050565b61277981612734565b811461278457600080fd5b50565b60008135905061279681612770565b92915050565b600080604083850312156127b3576127b261253a565b5b60006127c185828601612787565b92505060206127d2858286016126d2565b9150509250929050565b6127e5816126b1565b82525050565b600060208201905061280060008301846127dc565b92915050565b60008060006060848603121561281f5761281e61253a565b5b600061282d86828701612787565b935050602061283e86828701612787565b925050604061284f868287016126d2565b9150509250925092565b60006020828403121561286f5761286e61253a565b5b600061287d84828501612787565b91505092915050565b600060808201905061289b60008301876127dc565b6128a86020830186612746565b81810360408301526128ba8185612656565b905081810360608301526128ce8184612656565b905095945050505050565b600080fd5b600080fd5b7f4e487b7100000000000000000000000000000000000000000000000000000000600052604160045260246000fd5b61291b82612645565b810181811067ffffffffffffffff8211171561293a576129396128e3565b5b80604052505050565b600061294d612530565b90506129598282612912565b919050565b600067ffffffffffffffff821115612979576129786128e3565b5b61298282612645565b9050602081019050919050565b82818337600083830152505050565b60006129b16129ac8461295e565b612943565b9050828152602081018484840111156129cd576129cc6128de565b5b6129d884828561298f565b509392505050565b600082601f8301126129f5576129f46128d9565b5b8135612a0584826020860161299e565b91505092915050565b600060208284031215612a2457612a2361253a565b5b600082013567ffffffffffffffff811115612a4257612a4161253f565b5b612a4e848285016129e0565b91505092915050565b60008060008060808587031215612a7157612a7061253a565b5b6000612a7f878288016126d2565b9450506020612a9087828801612787565b935050604085013567ffffffffffffffff811115612ab157612ab061253f565b5b612abd878288016129e0565b925050606085013567ffffffffffffffff811115612ade57612add61253f565b5b612aea878288016129e0565b91505092959194509250565b612aff816125c9565b8114612b0a57600080fd5b50565b600081359050612b1c81612af6565b92915050565b60008060408385031215612b3957612b3861253a565b5b6000612b4785828601612787565b9250506020612b5885828601612b0d565b9150509250929050565b600067ffffffffffffffff821115612b7d57612b7c6128e3565b5b612b8682612645565b9050602081019050919050565b6000612ba6612ba184612b62565b612943565b905082815260208101848484011115612bc257612bc16128de565b5b612bcd84828561298f565b509392505050565b600082601f830112612bea57612be96128d9565b5b8135612bfa848260208601612b93565b91505092915050565b60008060008060808587031215612c1d57612c1c61253a565b5b6000612c2b87828801612787565b9450506020612c3c87828801612787565b9350506040612c4d878288016126d2565b925050606085013567ffffffffffffffff811115612c6e57612c6d61253f565b5b612c7a87828801612bd5565b91505092959194509250565b60008060408385031215612c9d57612c9c61253a565b5b6000612cab85828601612787565b9250506020612cbc85828601612787565b9150509250929050565b7f4e487b7100000000000000000000000000000000000000000000000000000000600052602260045260246000fd5b60006002820490506001821680612d0d57607f821691505b602082108103612d2057612d1f612cc6565b5b50919050565b7f4552433732313a20617070726f76616c20746f2063757272656e74206f776e6560008201527f7200000000000000000000000000000000000000000000000000000000000000602082015250565b6000612d8260218361260a565b9150612d8d82612d26565b604082019050919050565b60006020820190508181036000830152612db181612d75565b9050919050565b7f4552433732313a20617070726f76652063616c6c6572206973206e6f7420746f60008201527f6b656e206f776e6572206f7220617070726f76656420666f7220616c6c000000602082015250565b6000612e14603d8361260a565b9150612e1f82612db8565b604082019050919050565b60006020820190508181036000830152612e4381612e07565b9050919050565b7f43616c6c6572206973206e6f742053747564656e740000000000000000000000600082015250565b6000612e8060158361260a565b9150612e8b82612e4a565b602082019050919050565b60006020820190508181036000830152612eaf81612e73565b9050919050565b7f53747564656e7420616c7265616479206d696e74656400000000000000000000600082015250565b6000612eec60168361260a565b9150612ef782612eb6565b602082019050919050565b60006020820190508181036000830152612f1b81612edf565b9050919050565b7f4e487b7100000000000000000000000000000000000000000000000000000000600052601160045260246000fd5b6000612f5c826126b1565b9150612f67836126b1565b9250828201905080821115612f7f57612f7e612f22565b5b92915050565b7f4552433732313a2063616c6c6572206973206e6f7420746f6b656e206f776e6560008201527f72206f7220617070726f76656400000000000000000000000000000000000000602082015250565b6000612fe1602d8361260a565b9150612fec82612f85565b604082019050919050565b6000602082019050818103600083015261301081612fd4565b9050919050565b7f43616c6c6572206973206e6f742041646d696e00000000000000000000000000600082015250565b600061304d60138361260a565b915061305882613017565b602082019050919050565b6000602082019050818103600083015261307c81613040565b9050919050565b60008190508160005260206000209050919050565b60006020601f8301049050919050565b600082821b905092915050565b6000600883026130e57fffffffffffffffffffffffffffffffffffffffffffffffffffffffffffffffff826130a8565b6130ef86836130a8565b95508019841693508086168417925050509392505050565b6000819050919050565b600061312c613127613122846126b1565b613107565b6126b1565b9050919050565b6000819050919050565b61314683613111565b61315a61315282613133565b8484546130b5565b825550505050565b600090565b61316f613162565b61317a81848461313d565b505050565b5b8181101561319e57613193600082613167565b600181019050613180565b5050565b601f8211156131e3576131b481613083565b6131bd84613098565b810160208510156131cc578190505b6131e06131d885613098565b83018261317f565b50505b505050565b600082821c905092915050565b6000613206600019846008026131e8565b1980831691505092915050565b600061321f83836131f5565b9150826002028217905092915050565b613238826125ff565b67ffffffffffffffff811115613251576132506128e3565b5b61325b8254612cf5565b6132668282856131a2565b600060209050601f8311600181146132995760008415613287578287015190505b6132918582613213565b8655506132f9565b601f1984166132a786613083565b60005b828110156132cf578489015182556001820191506020850194506020810190506132aa565b868310156132ec57848901516132e8601f8916826131f5565b8355505b6001600288020188555050505b505050505050565b7f4552433732313a20696e76616c696420746f6b656e2049440000000000000000600082015250565b600061333760188361260a565b915061334282613301565b602082019050919050565b600060208201905081810360008301526133668161332a565b9050919050565b7f4552433732313a2061646472657373207a65726f206973206e6f74206120766160008201527f6c6964206f776e65720000000000000000000000000000000000000000000000602082015250565b60006133c960298361260a565b91506133d48261336d565b604082019050919050565b600060208201905081810360008301526133f8816133bc565b9050919050565b7f4552433732314d657461646174613a2055524920717565727920666f72206e6f60008201527f6e6578697374656e7420746f6b656e0000000000000000000000000000000000602082015250565b600061345b602f8361260a565b9150613466826133ff565b604082019050919050565b6000602082019050818103600083015261348a8161344e565b9050919050565b600081905092915050565b60006134a7826125ff565b6134b18185613491565b93506134c181856020860161261b565b80840191505092915050565b600081546134da81612cf5565b6134e48186613491565b945060018216600081146134ff576001811461351457613547565b60ff1983168652811515820286019350613547565b61351d85613083565b60005b8381101561353f57815481890152600182019150602081019050613520565b838801955050505b50505092915050565b600061355c828661349c565b9150613568828561349c565b915061357482846134cd565b9150819050949350505050565b7f4f776e61626c653a206e6577206f776e657220697320746865207a65726f206160008201527f6464726573730000000000000000000000000000000000000000000000000000602082015250565b60006135dd60268361260a565b91506135e882613581565b604082019050919050565b6000602082019050818103600083015261360c816135d0565b9050919050565b7f4552433732313a207472616e736665722066726f6d20696e636f72726563742060008201527f6f776e6572000000000000000000000000000000000000000000000000000000602082015250565b600061366f60258361260a565b915061367a82613613565b604082019050919050565b6000602082019050818103600083015261369e81613662565b9050919050565b7f4552433732313a207472616e7366657220746f20746865207a65726f2061646460008201527f7265737300000000000000000000000000000000000000000000000000000000602082015250565b600061370160248361260a565b915061370c826136a5565b604082019050919050565b60006020820190508181036000830152613730816136f4565b9050919050565b7f4f776e61626c653a2063616c6c6572206973206e6f7420746865206f776e6572600082015250565b600061376d60208361260a565b915061377882613737565b602082019050919050565b6000602082019050818103600083015261379c81613760565b9050919050565b7f4552433732313a20617070726f766520746f2063616c6c657200000000000000600082015250565b60006137d960198361260a565b91506137e4826137a3565b602082019050919050565b60006020820190508181036000830152613808816137cc565b9050919050565b7f4552433732313a207472616e7366657220746f206e6f6e20455243373231526560008201527f63656976657220696d706c656d656e7465720000000000000000000000000000602082015250565b600061386b60328361260a565b91506138768261380f565b604082019050919050565b6000602082019050818103600083015261389a8161385e565b9050919050565b7f4e487b7100000000000000000000000000000000000000000000000000000000600052601260045260246000fd5b600081519050919050565b600082825260208201905092915050565b60006138f7826138d0565b61390181856138db565b935061391181856020860161261b565b61391a81612645565b840191505092915050565b600060808201905061393a6000830187612746565b6139476020830186612746565b61395460408301856127dc565b818103606083015261396681846138ec565b905095945050505050565b60008151905061398081612570565b92915050565b60006020828403121561399c5761399b61253a565b5b60006139aa84828501613971565b91505092915050565b7f4552433732313a206d696e7420746f20746865207a65726f2061646472657373600082015250565b60006139e960208361260a565b91506139f4826139b3565b602082019050919050565b60006020820190508181036000830152613a18816139dc565b9050919050565b7f4552433732313a20746f6b656e20616c7265616479206d696e74656400000000600082015250565b6000613a55601c8361260a565b9150613a6082613a1f565b602082019050919050565b60006020820190508181036000830152613a8481613a48565b905091905056fea26469706673582212200fd3ddf4da49a139ac59a8ad3cb12ed1759f624e9ff665dddd4af79feaefe2bc64736f6c63430008130033",
  "linkReferences": {},
  "deployedLinkReferences": {}
}