{
  "_format": "hh-sol-artifact-1",
  "contractName": "Certificate",
  "sourceName": "contracts/Certificate.sol",
  "abi": [
    {
      "inputs": [
        {
          "internalType": "address",
          "name": "_adminAddress",
          "type": "address"
        },
        {
          "internalType": "string",
          "name": "_adminEmail",
          "type": "string"
        },
        {
          "internalType": "string",
          "name": "_baseURI_",
          "type": "string"
        }
      ],
      "stateMutability": "nonpayable",
      "type": "constructor"
    },
    {
      "anonymous": false,
      "inputs": [
        {
          "indexed": true,
          "internalType": "address",
          "name": "owner",
          "type": "address"
        },
        {
          "indexed": true,
          "internalType": "address",
          "name": "approved",
          "type": "address"
        },
        {
          "indexed": true,
          "internalType": "uint256",
          "name": "tokenId",
          "type": "uint256"
        }
      ],
      "name": "Approval",
      "type": "event"
    },
    {
      "anonymous": false,
      "inputs": [
        {
          "indexed": true,
          "internalType": "address",
          "name": "owner",
          "type": "address"
        },
        {
          "indexed": true,
          "internalType": "address",
          "name": "operator",
          "type": "address"
        },
        {
          "indexed": false,
          "internalType": "bool",
          "name": "approved",
          "type": "bool"
        }
      ],
      "name": "ApprovalForAll",
      "type": "event"
    },
    {
      "anonymous": false,
      "inputs": [
        {
          "indexed": true,
          "internalType": "address",
          "name": "from",
          "type": "address"
        },
        {
          "indexed": true,
          "internalType": "address",
          "name": "to",
          "type": "address"
        },
        {
          "indexed": true,
          "internalType": "uint256",
          "name": "tokenId",
          "type": "uint256"
        }
      ],
      "name": "Transfer",
      "type": "event"
    },
    {
      "inputs": [
        {
          "internalType": "address",
          "name": "_studentAddress",
          "type": "address"
        },
        {
          "internalType": "string",
          "name": "_studentEmail",
          "type": "string"
        }
      ],
      "name": "addStudentAddress",
      "outputs": [],
      "stateMutability": "nonpayable",
      "type": "function"
    },
    {
      "inputs": [
        {
          "internalType": "uint256",
          "name": "_studentId",
          "type": "uint256"
        },
        {
          "internalType": "string",
          "name": "_studentCourse",
          "type": "string"
        },
        {
          "internalType": "string",
          "name": "_studentEmail",
          "type": "string"
        },
        {
          "internalType": "string",
          "name": "_studentGPA",
          "type": "string"
        }
      ],
      "name": "addStudentInfo",
      "outputs": [],
      "stateMutability": "nonpayable",
      "type": "function"
    },
    {
      "inputs": [],
      "name": "adminAddress",
      "outputs": [
        {
          "internalType": "address",
          "name": "",
          "type": "address"
        }
      ],
      "stateMutability": "view",
      "type": "function"
    },
    {
      "inputs": [],
      "name": "adminEmail",
      "outputs": [
        {
          "internalType": "string",
          "name": "",
          "type": "string"
        }
      ],
      "stateMutability": "view",
      "type": "function"
    },
    {
      "inputs": [
        {
          "internalType": "address",
          "name": "to",
          "type": "address"
        },
        {
          "internalType": "uint256",
          "name": "tokenId",
          "type": "uint256"
        }
      ],
      "name": "approve",
      "outputs": [],
      "stateMutability": "nonpayable",
      "type": "function"
    },
    {
      "inputs": [
        {
          "internalType": "address",
          "name": "owner",
          "type": "address"
        }
      ],
      "name": "balanceOf",
      "outputs": [
        {
          "internalType": "uint256",
          "name": "",
          "type": "uint256"
        }
      ],
      "stateMutability": "view",
      "type": "function"
    },
    {
      "inputs": [],
      "name": "baseExtension",
      "outputs": [
        {
          "internalType": "string",
          "name": "",
          "type": "string"
        }
      ],
      "stateMutability": "view",
      "type": "function"
    },
    {
      "inputs": [],
      "name": "baseURI",
      "outputs": [
        {
          "internalType": "string",
          "name": "",
          "type": "string"
        }
      ],
      "stateMutability": "view",
      "type": "function"
    },
    {
      "inputs": [
        {
          "internalType": "address[]",
          "name": "_studentAddresses",
          "type": "address[]"
        },
        {
          "internalType": "string[]",
          "name": "_studentEmails",
          "type": "string[]"
        }
      ],
      "name": "batchAddStudentAddress",
      "outputs": [],
      "stateMutability": "nonpayable",
      "type": "function"
    },
    {
      "inputs": [
        {
          "internalType": "uint256[]",
          "name": "_studentIds",
          "type": "uint256[]"
        },
        {
          "internalType": "string[]",
          "name": "_studentCourses",
          "type": "string[]"
        },
        {
          "internalType": "string[]",
          "name": "_studentEmails",
          "type": "string[]"
        },
        {
          "internalType": "string[]",
          "name": "_studentGPAs",
          "type": "string[]"
        }
      ],
      "name": "batchAddStudentsInfo",
      "outputs": [],
      "stateMutability": "nonpayable",
      "type": "function"
    },
    {
      "inputs": [],
      "name": "batchMint",
      "outputs": [
        {
          "internalType": "bool",
          "name": "",
          "type": "bool"
        }
      ],
      "stateMutability": "nonpayable",
      "type": "function"
    },
    {
      "inputs": [
        {
          "internalType": "address",
          "name": "_newAdmin",
          "type": "address"
        }
      ],
      "name": "changeAdmin",
      "outputs": [],
      "stateMutability": "nonpayable",
      "type": "function"
    },
    {
      "inputs": [
        {
          "internalType": "uint256",
          "name": "tokenId",
          "type": "uint256"
        }
      ],
      "name": "getApproved",
      "outputs": [
        {
          "internalType": "address",
          "name": "",
          "type": "address"
        }
      ],
      "stateMutability": "view",
      "type": "function"
    },
    {
      "inputs": [
        {
          "internalType": "address",
          "name": "owner",
          "type": "address"
        },
        {
          "internalType": "address",
          "name": "operator",
          "type": "address"
        }
      ],
      "name": "isApprovedForAll",
      "outputs": [
        {
          "internalType": "bool",
          "name": "",
          "type": "bool"
        }
      ],
      "stateMutability": "view",
      "type": "function"
    },
    {
      "inputs": [
        {
          "internalType": "address",
          "name": "",
          "type": "address"
        }
      ],
      "name": "isMinted",
      "outputs": [
        {
          "internalType": "bool",
          "name": "",
          "type": "bool"
        }
      ],
      "stateMutability": "view",
      "type": "function"
    },
    {
      "inputs": [
        {
          "internalType": "address",
          "name": "",
          "type": "address"
        }
      ],
      "name": "isStudent",
      "outputs": [
        {
          "internalType": "bool",
          "name": "",
          "type": "bool"
        }
      ],
      "stateMutability": "view",
      "type": "function"
    },
    {
      "inputs": [],
      "name": "name",
      "outputs": [
        {
          "internalType": "string",
          "name": "",
          "type": "string"
        }
      ],
      "stateMutability": "view",
      "type": "function"
    },
    {
      "inputs": [],
      "name": "noOfStudents",
      "outputs": [
        {
          "internalType": "uint256",
          "name": "",
          "type": "uint256"
        }
      ],
      "stateMutability": "view",
      "type": "function"
    },
    {
      "inputs": [
        {
          "internalType": "uint256",
          "name": "tokenId",
          "type": "uint256"
        }
      ],
      "name": "ownerOf",
      "outputs": [
        {
          "internalType": "address",
          "name": "",
          "type": "address"
        }
      ],
      "stateMutability": "view",
      "type": "function"
    },
    {
      "inputs": [
        {
          "internalType": "address",
          "name": "from",
          "type": "address"
        },
        {
          "internalType": "address",
          "name": "to",
          "type": "address"
        },
        {
          "internalType": "uint256",
          "name": "tokenId",
          "type": "uint256"
        }
      ],
      "name": "safeTransferFrom",
      "outputs": [],
      "stateMutability": "nonpayable",
      "type": "function"
    },
    {
      "inputs": [
        {
          "internalType": "address",
          "name": "from",
          "type": "address"
        },
        {
          "internalType": "address",
          "name": "to",
          "type": "address"
        },
        {
          "internalType": "uint256",
          "name": "tokenId",
          "type": "uint256"
        },
        {
          "internalType": "bytes",
          "name": "data",
          "type": "bytes"
        }
      ],
      "name": "safeTransferFrom",
      "outputs": [],
      "stateMutability": "nonpayable",
      "type": "function"
    },
    {
      "inputs": [
        {
          "internalType": "address",
          "name": "operator",
          "type": "address"
        },
        {
          "internalType": "bool",
          "name": "approved",
          "type": "bool"
        }
      ],
      "name": "setApprovalForAll",
      "outputs": [],
      "stateMutability": "nonpayable",
      "type": "function"
    },
    {
      "inputs": [
        {
          "internalType": "string",
          "name": "_newBaseURI",
          "type": "string"
        }
      ],
      "name": "setBaseURI",
      "outputs": [],
      "stateMutability": "nonpayable",
      "type": "function"
    },
    {
      "inputs": [
        {
          "internalType": "uint256",
          "name": "",
          "type": "uint256"
        }
      ],
      "name": "studentIndex",
      "outputs": [
        {
          "internalType": "uint256",
          "name": "studentId",
          "type": "uint256"
        },
        {
          "internalType": "string",
          "name": "studentCourse",
          "type": "string"
        },
        {
          "internalType": "string",
          "name": "studentEmail",
          "type": "string"
        },
        {
          "internalType": "string",
          "name": "studentGPA",
          "type": "string"
        },
        {
          "internalType": "address",
          "name": "studentAddress",
          "type": "address"
        }
      ],
      "stateMutability": "view",
      "type": "function"
    },
    {
      "inputs": [
        {
          "internalType": "string",
          "name": "",
          "type": "string"
        }
      ],
      "name": "studentInfo",
      "outputs": [
        {
          "internalType": "uint256",
          "name": "studentId",
          "type": "uint256"
        },
        {
          "internalType": "string",
          "name": "studentCourse",
          "type": "string"
        },
        {
          "internalType": "string",
          "name": "studentEmail",
          "type": "string"
        },
        {
          "internalType": "string",
          "name": "studentGPA",
          "type": "string"
        },
        {
          "internalType": "address",
          "name": "studentAddress",
          "type": "address"
        }
      ],
      "stateMutability": "view",
      "type": "function"
    },
    {
      "inputs": [
        {
          "internalType": "bytes4",
          "name": "interfaceId",
          "type": "bytes4"
        }
      ],
      "name": "supportsInterface",
      "outputs": [
        {
          "internalType": "bool",
          "name": "",
          "type": "bool"
        }
      ],
      "stateMutability": "view",
      "type": "function"
    },
    {
      "inputs": [],
      "name": "symbol",
      "outputs": [
        {
          "internalType": "string",
          "name": "",
          "type": "string"
        }
      ],
      "stateMutability": "view",
      "type": "function"
    },
    {
      "inputs": [
        {
          "internalType": "uint256",
          "name": "tokenID",
          "type": "uint256"
        }
      ],
      "name": "tokenURI",
      "outputs": [
        {
          "internalType": "string",
          "name": "",
          "type": "string"
        }
      ],
      "stateMutability": "view",
      "type": "function"
    },
    {
      "inputs": [],
      "name": "totalSupply",
      "outputs": [
        {
          "internalType": "uint256",
          "name": "",
          "type": "uint256"
        }
      ],
      "stateMutability": "view",
      "type": "function"
    },
    {
      "inputs": [
        {
          "internalType": "address",
          "name": "from",
          "type": "address"
        },
        {
          "internalType": "address",
          "name": "to",
          "type": "address"
        },
        {
          "internalType": "uint256",
          "name": "tokenId",
          "type": "uint256"
        }
      ],
      "name": "transferFrom",
      "outputs": [],
      "stateMutability": "nonpayable",
      "type": "function"
    }
  ],
  "bytecode": "0x60806040526040518060400160405280600581526020017f2e6a736f6e000000000000000000000000000000000000000000000000000000815250600b90816200004a9190620003f8565b503480156200005857600080fd5b50604051620051403803806200514083398181016040528101906200007e9190620006a8565b6040518060400160405280600b81526020017f43657274696669636174650000000000000000000000000000000000000000008152506040518060400160405280600481526020017f43525446000000000000000000000000000000000000000000000000000000008152508160009081620000fb9190620003f8565b5080600190816200010d9190620003f8565b50505082600660006101000a81548173ffffffffffffffffffffffffffffffffffffffff021916908373ffffffffffffffffffffffffffffffffffffffff1602179055508160079081620001629190620003f8565b5080600a9081620001749190620003f8565b5050505062000742565b600081519050919050565b7f4e487b7100000000000000000000000000000000000000000000000000000000600052604160045260246000fd5b7f4e487b7100000000000000000000000000000000000000000000000000000000600052602260045260246000fd5b600060028204905060018216806200020057607f821691505b602082108103620002165762000215620001b8565b5b50919050565b60008190508160005260206000209050919050565b60006020601f8301049050919050565b600082821b905092915050565b600060088302620002807fffffffffffffffffffffffffffffffffffffffffffffffffffffffffffffffff8262000241565b6200028c868362000241565b95508019841693508086168417925050509392505050565b6000819050919050565b6000819050919050565b6000620002d9620002d3620002cd84620002a4565b620002ae565b620002a4565b9050919050565b6000819050919050565b620002f583620002b8565b6200030d6200030482620002e0565b8484546200024e565b825550505050565b600090565b6200032462000315565b62000331818484620002ea565b505050565b5b8181101562000359576200034d6000826200031a565b60018101905062000337565b5050565b601f821115620003a85762000372816200021c565b6200037d8462000231565b810160208510156200038d578190505b620003a56200039c8562000231565b83018262000336565b50505b505050565b600082821c905092915050565b6000620003cd60001984600802620003ad565b1980831691505092915050565b6000620003e88383620003ba565b9150826002028217905092915050565b62000403826200017e565b67ffffffffffffffff8111156200041f576200041e62000189565b5b6200042b8254620001e7565b620004388282856200035d565b600060209050601f8311600181146200047057600084156200045b578287015190505b620004678582620003da565b865550620004d7565b601f19841662000480866200021c565b60005b82811015620004aa5784890151825560018201915060208501945060208101905062000483565b86831015620004ca5784890151620004c6601f891682620003ba565b8355505b6001600288020188555050505b505050505050565b6000604051905090565b600080fd5b600080fd5b600073ffffffffffffffffffffffffffffffffffffffff82169050919050565b60006200052082620004f3565b9050919050565b620005328162000513565b81146200053e57600080fd5b50565b600081519050620005528162000527565b92915050565b600080fd5b600080fd5b6000601f19601f8301169050919050565b6200057e8262000562565b810181811067ffffffffffffffff82111715620005a0576200059f62000189565b5b80604052505050565b6000620005b5620004df565b9050620005c3828262000573565b919050565b600067ffffffffffffffff821115620005e657620005e562000189565b5b620005f18262000562565b9050602081019050919050565b60005b838110156200061e57808201518184015260208101905062000601565b60008484015250505050565b6000620006416200063b84620005c8565b620005a9565b90508281526020810184848401111562000660576200065f6200055d565b5b6200066d848285620005fe565b509392505050565b600082601f8301126200068d576200068c62000558565b5b81516200069f8482602086016200062a565b91505092915050565b600080600060608486031215620006c457620006c3620004e9565b5b6000620006d48682870162000541565b935050602084015167ffffffffffffffff811115620006f857620006f7620004ee565b5b620007068682870162000675565b925050604084015167ffffffffffffffff8111156200072a5762000729620004ee565b5b620007388682870162000675565b9150509250925092565b6149ee80620007526000396000f3fe608060405234801561001057600080fd5b50600436106101da5760003560e01c80636c0360eb11610104578063c6682862116100a2578063e3424c9311610071578063e3424c931461056d578063e985e9c51461058b578063f9f2a7ce146105bb578063fc6f9468146105eb576101da565b8063c6682862146104cf578063c87b56dd146104ed578063cde6a8db1461051d578063dc986b1414610551576101da565b80638f283970116100de5780638f2839701461045d57806395d89b4114610479578063a22cb46514610497578063b88d4fde146104b3576101da565b80636c0360eb146103df57806370a08231146103fd57806382f7d3921461042d576101da565b80632e880d631161017c5780635320cebe1161014b5780635320cebe1461034357806355f804b31461037757806362d32e46146103935780636352211e146103af576101da565b80632e880d63146102cf57806330dc1553146102eb57806342842e0e146103095780634c1cce7414610325576101da565b8063095ea7b3116101b8578063095ea7b31461025d57806318160ddd1461027957806323b872dd146102975780632abba93b146102b3576101da565b806301ffc9a7146101df57806306fdde031461020f578063081812fc1461022d575b600080fd5b6101f960048036038101906101f49190612e89565b610609565b6040516102069190612ed1565b60405180910390f35b6102176106eb565b6040516102249190612f7c565b60405180910390f35b61024760048036038101906102429190612fd4565b61077d565b6040516102549190613042565b60405180910390f35b61027760048036038101906102729190613089565b6107c3565b005b6102816108da565b60405161028e91906130d8565b60405180910390f35b6102b160048036038101906102ac91906130f3565b6108e0565b005b6102cd60048036038101906102c89190613424565b610940565b005b6102e960048036038101906102e491906134fb565b610bce565b005b6102f3610d9f565b60405161030091906130d8565b60405180910390f35b610323600480360381019061031e91906130f3565b610da5565b005b61032d610dc5565b60405161033a9190612f7c565b60405180910390f35b61035d600480360381019061035891906135b6565b610e53565b60405161036e9594939291906135ff565b60405180910390f35b610391600480360381019061038c91906135b6565b611057565b005b6103ad60048036038101906103a8919061372a565b6110fa565b005b6103c960048036038101906103c49190612fd4565b6113ed565b6040516103d69190613042565b60405180910390f35b6103e7611473565b6040516103f49190612f7c565b60405180910390f35b610417600480360381019061041291906137a2565b611501565b60405161042491906130d8565b60405180910390f35b610447600480360381019061044291906137a2565b6115b8565b6040516104549190612ed1565b60405180910390f35b610477600480360381019061047291906137a2565b6115d8565b005b6104816116e5565b60405161048e9190612f7c565b60405180910390f35b6104b160048036038101906104ac91906137fb565b611777565b005b6104cd60048036038101906104c891906138dc565b61178d565b005b6104d76117ef565b6040516104e49190612f7c565b60405180910390f35b61050760048036038101906105029190612fd4565b61187d565b6040516105149190612f7c565b60405180910390f35b61053760048036038101906105329190612fd4565b611927565b6040516105489594939291906135ff565b60405180910390f35b61056b6004803603810190610566919061395f565b611b15565b005b610575611d61565b6040516105829190612ed1565b60405180910390f35b6105a560048036038101906105a091906139bb565b611efa565b6040516105b29190612ed1565b60405180910390f35b6105d560048036038101906105d091906137a2565b611f8e565b6040516105e29190612ed1565b60405180910390f35b6105f3611fae565b6040516106009190613042565b60405180910390f35b60007f80ac58cd000000000000000000000000000000000000000000000000000000007bffffffffffffffffffffffffffffffffffffffffffffffffffffffff1916827bffffffffffffffffffffffffffffffffffffffffffffffffffffffff191614806106d457507f5b5e139f000000000000000000000000000000000000000000000000000000007bffffffffffffffffffffffffffffffffffffffffffffffffffffffff1916827bffffffffffffffffffffffffffffffffffffffffffffffffffffffff1916145b806106e457506106e382611fd4565b5b9050919050565b6060600080546106fa90613a2a565b80601f016020809104026020016040519081016040528092919081815260200182805461072690613a2a565b80156107735780601f1061074857610100808354040283529160200191610773565b820191906000526020600020905b81548152906001019060200180831161075657829003601f168201915b5050505050905090565b60006107888261203e565b6004600083815260200190815260200160002060009054906101000a900473ffffffffffffffffffffffffffffffffffffffff169050919050565b60006107ce826113ed565b90508073ffffffffffffffffffffffffffffffffffffffff168373ffffffffffffffffffffffffffffffffffffffff160361083e576040517f08c379a000000000000000000000000000000000000000000000000000000000815260040161083590613acd565b60405180910390fd5b8073ffffffffffffffffffffffffffffffffffffffff1661085d612089565b73ffffffffffffffffffffffffffffffffffffffff16148061088c575061088b81610886612089565b611efa565b5b6108cb576040517f08c379a00000000000000000000000000000000000000000000000000000000081526004016108c290613b5f565b60405180910390fd5b6108d58383612091565b505050565b60085481565b6108f16108eb612089565b8261214a565b610930576040517f08c379a000000000000000000000000000000000000000000000000000000000815260040161092790613bf1565b60405180910390fd5b61093b8383836121df565b505050565b600660009054906101000a900473ffffffffffffffffffffffffffffffffffffffff1673ffffffffffffffffffffffffffffffffffffffff163373ffffffffffffffffffffffffffffffffffffffff16146109d0576040517f08c379a00000000000000000000000000000000000000000000000000000000081526004016109c790613c5d565b60405180910390fd5b825184511480156109e2575081518351145b80156109ef575080518251145b610a2e576040517f08c379a0000000000000000000000000000000000000000000000000000000008152600401610a2590613cef565b60405180910390fd5b60005b8251811015610bc75760006040518060a00160405280878481518110610a5a57610a59613d0f565b5b60200260200101518152602001868481518110610a7a57610a79613d0f565b5b60200260200101518152602001858481518110610a9a57610a99613d0f565b5b60200260200101518152602001848481518110610aba57610ab9613d0f565b5b60200260200101518152602001600073ffffffffffffffffffffffffffffffffffffffff16815250905080600e858481518110610afa57610af9613d0f565b5b6020026020010151604051610b0f9190613d7a565b9081526020016040518091039020600082015181600001556020820151816001019081610b3c9190613f3d565b506040820151816002019081610b529190613f3d565b506060820151816003019081610b689190613f3d565b5060808201518160040160006101000a81548173ffffffffffffffffffffffffffffffffffffffff021916908373ffffffffffffffffffffffffffffffffffffffff160217905550905050508080610bbf9061403e565b915050610a31565b5050505050565b600660009054906101000a900473ffffffffffffffffffffffffffffffffffffffff1673ffffffffffffffffffffffffffffffffffffffff163373ffffffffffffffffffffffffffffffffffffffff1614610c5e576040517f08c379a0000000000000000000000000000000000000000000000000000000008152600401610c5590613c5d565b60405180910390fd5b60008403610ca1576040517f08c379a0000000000000000000000000000000000000000000000000000000008152600401610c98906140d2565b60405180910390fd5b60006040518060a00160405280868152602001858152602001848152602001838152602001600073ffffffffffffffffffffffffffffffffffffffff16815250905080600e84604051610cf49190613d7a565b9081526020016040518091039020600082015181600001556020820151816001019081610d219190613f3d565b506040820151816002019081610d379190613f3d565b506060820151816003019081610d4d9190613f3d565b5060808201518160040160006101000a81548173ffffffffffffffffffffffffffffffffffffffff021916908373ffffffffffffffffffffffffffffffffffffffff1602179055509050505050505050565b60095481565b610dc08383836040518060200160405280600081525061178d565b505050565b60078054610dd290613a2a565b80601f0160208091040260200160405190810160405280929190818152602001828054610dfe90613a2a565b8015610e4b5780601f10610e2057610100808354040283529160200191610e4b565b820191906000526020600020905b815481529060010190602001808311610e2e57829003601f168201915b505050505081565b600e81805160208101820180518482526020830160208501208183528095505050505050600091509050806000015490806001018054610e9290613a2a565b80601f0160208091040260200160405190810160405280929190818152602001828054610ebe90613a2a565b8015610f0b5780601f10610ee057610100808354040283529160200191610f0b565b820191906000526020600020905b815481529060010190602001808311610eee57829003601f168201915b505050505090806002018054610f2090613a2a565b80601f0160208091040260200160405190810160405280929190818152602001828054610f4c90613a2a565b8015610f995780601f10610f6e57610100808354040283529160200191610f99565b820191906000526020600020905b815481529060010190602001808311610f7c57829003601f168201915b505050505090806003018054610fae90613a2a565b80601f0160208091040260200160405190810160405280929190818152602001828054610fda90613a2a565b80156110275780601f10610ffc57610100808354040283529160200191611027565b820191906000526020600020905b81548152906001019060200180831161100a57829003601f168201915b5050505050908060040160009054906101000a900473ffffffffffffffffffffffffffffffffffffffff16905085565b600660009054906101000a900473ffffffffffffffffffffffffffffffffffffffff1673ffffffffffffffffffffffffffffffffffffffff163373ffffffffffffffffffffffffffffffffffffffff16146110e7576040517f08c379a00000000000000000000000000000000000000000000000000000000081526004016110de90613c5d565b60405180910390fd5b80600a90816110f69190613f3d565b5050565b600660009054906101000a900473ffffffffffffffffffffffffffffffffffffffff1673ffffffffffffffffffffffffffffffffffffffff163373ffffffffffffffffffffffffffffffffffffffff161461118a576040517f08c379a000000000000000000000000000000000000000000000000000000000815260040161118190613c5d565b60405180910390fd5b80518251146111ce576040517f08c379a00000000000000000000000000000000000000000000000000000000081526004016111c590613cef565b60405180910390fd5b60005b81518110156113e8576000600e8383815181106111f1576111f0613d0f565b5b60200260200101516040516112069190613d7a565b90815260200160405180910390206000015403611258576040517f08c379a000000000000000000000000000000000000000000000000000000000815260040161124f9061413e565b60405180910390fd5b6000600e83838151811061126f5761126e613d0f565b5b60200260200101516040516112849190613d7a565b908152602001604051809103902090508382815181106112a7576112a6613d0f565b5b60200260200101518160040160006101000a81548173ffffffffffffffffffffffffffffffffffffffff021916908373ffffffffffffffffffffffffffffffffffffffff16021790555080600f6000600954815260200190815260200160002060008201548160000155600182018160010190816113259190614174565b506002820181600201908161133a9190614174565b506003820181600301908161134f9190614174565b506004820160009054906101000a900473ffffffffffffffffffffffffffffffffffffffff168160040160006101000a81548173ffffffffffffffffffffffffffffffffffffffff021916908373ffffffffffffffffffffffffffffffffffffffff1602179055509050506001600960008282546113cd919061425c565b925050819055505080806113e09061403e565b9150506111d1565b505050565b6000806113f9836124d8565b9050600073ffffffffffffffffffffffffffffffffffffffff168173ffffffffffffffffffffffffffffffffffffffff160361146a576040517f08c379a0000000000000000000000000000000000000000000000000000000008152600401611461906142dc565b60405180910390fd5b80915050919050565b600a805461148090613a2a565b80601f01602080910402602001604051908101604052809291908181526020018280546114ac90613a2a565b80156114f95780601f106114ce576101008083540402835291602001916114f9565b820191906000526020600020905b8154815290600101906020018083116114dc57829003601f168201915b505050505081565b60008073ffffffffffffffffffffffffffffffffffffffff168273ffffffffffffffffffffffffffffffffffffffff1603611571576040517f08c379a00000000000000000000000000000000000000000000000000000000081526004016115689061436e565b60405180910390fd5b600360008373ffffffffffffffffffffffffffffffffffffffff1673ffffffffffffffffffffffffffffffffffffffff168152602001908152602001600020549050919050565b600c6020528060005260406000206000915054906101000a900460ff1681565b600660009054906101000a900473ffffffffffffffffffffffffffffffffffffffff1673ffffffffffffffffffffffffffffffffffffffff163373ffffffffffffffffffffffffffffffffffffffff1614611668576040517f08c379a000000000000000000000000000000000000000000000000000000000815260040161165f90613c5d565b60405180910390fd5b600073ffffffffffffffffffffffffffffffffffffffff168173ffffffffffffffffffffffffffffffffffffffff16036116a157600080fd5b80600660006101000a81548173ffffffffffffffffffffffffffffffffffffffff021916908373ffffffffffffffffffffffffffffffffffffffff16021790555050565b6060600180546116f490613a2a565b80601f016020809104026020016040519081016040528092919081815260200182805461172090613a2a565b801561176d5780601f106117425761010080835404028352916020019161176d565b820191906000526020600020905b81548152906001019060200180831161175057829003601f168201915b5050505050905090565b611789611782612089565b8383612515565b5050565b61179e611798612089565b8361214a565b6117dd576040517f08c379a00000000000000000000000000000000000000000000000000000000081526004016117d490613bf1565b60405180910390fd5b6117e984848484612681565b50505050565b600b80546117fc90613a2a565b80601f016020809104026020016040519081016040528092919081815260200182805461182890613a2a565b80156118755780601f1061184a57610100808354040283529160200191611875565b820191906000526020600020905b81548152906001019060200180831161185857829003601f168201915b505050505081565b6060611888826126dd565b6118c7576040517f08c379a00000000000000000000000000000000000000000000000000000000081526004016118be90614400565b60405180910390fd5b60006118d161271e565b905060008151116118f1576040518060200160405280600081525061191f565b806118fb846127b0565b600b60405160200161190f939291906144a3565b6040516020818303038152906040525b915050919050565b600f60205280600052604060002060009150905080600001549080600101805461195090613a2a565b80601f016020809104026020016040519081016040528092919081815260200182805461197c90613a2a565b80156119c95780601f1061199e576101008083540402835291602001916119c9565b820191906000526020600020905b8154815290600101906020018083116119ac57829003601f168201915b5050505050908060020180546119de90613a2a565b80601f0160208091040260200160405190810160405280929190818152602001828054611a0a90613a2a565b8015611a575780601f10611a2c57610100808354040283529160200191611a57565b820191906000526020600020905b815481529060010190602001808311611a3a57829003601f168201915b505050505090806003018054611a6c90613a2a565b80601f0160208091040260200160405190810160405280929190818152602001828054611a9890613a2a565b8015611ae55780601f10611aba57610100808354040283529160200191611ae5565b820191906000526020600020905b815481529060010190602001808311611ac857829003601f168201915b5050505050908060040160009054906101000a900473ffffffffffffffffffffffffffffffffffffffff16905085565b600660009054906101000a900473ffffffffffffffffffffffffffffffffffffffff1673ffffffffffffffffffffffffffffffffffffffff163373ffffffffffffffffffffffffffffffffffffffff1614611ba5576040517f08c379a0000000000000000000000000000000000000000000000000000000008152600401611b9c90613c5d565b60405180910390fd5b600073ffffffffffffffffffffffffffffffffffffffff168273ffffffffffffffffffffffffffffffffffffffff1603611c14576040517f08c379a0000000000000000000000000000000000000000000000000000000008152600401611c0b90614520565b60405180910390fd5b6000600e82604051611c269190613d7a565b90815260200160405180910390209050828160040160006101000a81548173ffffffffffffffffffffffffffffffffffffffff021916908373ffffffffffffffffffffffffffffffffffffffff16021790555080600f600060095481526020019081526020016000206000820154816000015560018201816001019081611cad9190614174565b5060028201816002019081611cc29190614174565b5060038201816003019081611cd79190614174565b506004820160009054906101000a900473ffffffffffffffffffffffffffffffffffffffff168160040160006101000a81548173ffffffffffffffffffffffffffffffffffffffff021916908373ffffffffffffffffffffffffffffffffffffffff160217905550905050600160096000828254611d55919061425c565b92505081905550505050565b6000600660009054906101000a900473ffffffffffffffffffffffffffffffffffffffff1673ffffffffffffffffffffffffffffffffffffffff163373ffffffffffffffffffffffffffffffffffffffff1614611df3576040517f08c379a0000000000000000000000000000000000000000000000000000000008152600401611dea90613c5d565b60405180910390fd5b60005b600954811015611ef2576000600f60008381526020019081526020016000206000015490506000600f600084815260200190815260200160002060040160009054906101000a900473ffffffffffffffffffffffffffffffffffffffff16905060008214158015611e945750600073ffffffffffffffffffffffffffffffffffffffff168173ffffffffffffffffffffffffffffffffffffffff1614155b611ed3576040517f08c379a0000000000000000000000000000000000000000000000000000000008152600401611eca9061458c565b60405180910390fd5b611edd818361287e565b50508080611eea9061403e565b915050611df6565b506001905090565b6000600560008473ffffffffffffffffffffffffffffffffffffffff1673ffffffffffffffffffffffffffffffffffffffff16815260200190815260200160002060008373ffffffffffffffffffffffffffffffffffffffff1673ffffffffffffffffffffffffffffffffffffffff16815260200190815260200160002060009054906101000a900460ff16905092915050565b600d6020528060005260406000206000915054906101000a900460ff1681565b600660009054906101000a900473ffffffffffffffffffffffffffffffffffffffff1681565b60007f01ffc9a7000000000000000000000000000000000000000000000000000000007bffffffffffffffffffffffffffffffffffffffffffffffffffffffff1916827bffffffffffffffffffffffffffffffffffffffffffffffffffffffff1916149050919050565b612047816126dd565b612086576040517f08c379a000000000000000000000000000000000000000000000000000000000815260040161207d906142dc565b60405180910390fd5b50565b600033905090565b816004600083815260200190815260200160002060006101000a81548173ffffffffffffffffffffffffffffffffffffffff021916908373ffffffffffffffffffffffffffffffffffffffff160217905550808273ffffffffffffffffffffffffffffffffffffffff16612104836113ed565b73ffffffffffffffffffffffffffffffffffffffff167f8c5be1e5ebec7d5bd14f71427d1e84f3dd0314c0f7b2291e5b200ac8c7c3b92560405160405180910390a45050565b600080612156836113ed565b90508073ffffffffffffffffffffffffffffffffffffffff168473ffffffffffffffffffffffffffffffffffffffff16148061219857506121978185611efa565b5b806121d657508373ffffffffffffffffffffffffffffffffffffffff166121be8461077d565b73ffffffffffffffffffffffffffffffffffffffff16145b91505092915050565b8273ffffffffffffffffffffffffffffffffffffffff166121ff826113ed565b73ffffffffffffffffffffffffffffffffffffffff1614612255576040517f08c379a000000000000000000000000000000000000000000000000000000000815260040161224c9061461e565b60405180910390fd5b600073ffffffffffffffffffffffffffffffffffffffff168273ffffffffffffffffffffffffffffffffffffffff16036122c4576040517f08c379a00000000000000000000000000000000000000000000000000000000081526004016122bb906146b0565b60405180910390fd5b6122d1838383600161289c565b8273ffffffffffffffffffffffffffffffffffffffff166122f1826113ed565b73ffffffffffffffffffffffffffffffffffffffff1614612347576040517f08c379a000000000000000000000000000000000000000000000000000000000815260040161233e9061461e565b60405180910390fd5b6004600082815260200190815260200160002060006101000a81549073ffffffffffffffffffffffffffffffffffffffff02191690556001600360008573ffffffffffffffffffffffffffffffffffffffff1673ffffffffffffffffffffffffffffffffffffffff168152602001908152602001600020600082825403925050819055506001600360008473ffffffffffffffffffffffffffffffffffffffff1673ffffffffffffffffffffffffffffffffffffffff16815260200190815260200160002060008282540192505081905550816002600083815260200190815260200160002060006101000a81548173ffffffffffffffffffffffffffffffffffffffff021916908373ffffffffffffffffffffffffffffffffffffffff160217905550808273ffffffffffffffffffffffffffffffffffffffff168473ffffffffffffffffffffffffffffffffffffffff167fddf252ad1be2c89b69c2b068fc378daa952ba7f163c4a11628f55a4df523b3ef60405160405180910390a46124d383838360016128a2565b505050565b60006002600083815260200190815260200160002060009054906101000a900473ffffffffffffffffffffffffffffffffffffffff169050919050565b8173ffffffffffffffffffffffffffffffffffffffff168373ffffffffffffffffffffffffffffffffffffffff1603612583576040517f08c379a000000000000000000000000000000000000000000000000000000000815260040161257a9061471c565b60405180910390fd5b80600560008573ffffffffffffffffffffffffffffffffffffffff1673ffffffffffffffffffffffffffffffffffffffff16815260200190815260200160002060008473ffffffffffffffffffffffffffffffffffffffff1673ffffffffffffffffffffffffffffffffffffffff16815260200190815260200160002060006101000a81548160ff0219169083151502179055508173ffffffffffffffffffffffffffffffffffffffff168373ffffffffffffffffffffffffffffffffffffffff167f17307eab39ab6107e8899845ad3d59bd9653f200f220920489ca2b5937696c31836040516126749190612ed1565b60405180910390a3505050565b61268c8484846121df565b612698848484846128a8565b6126d7576040517f08c379a00000000000000000000000000000000000000000000000000000000081526004016126ce906147ae565b60405180910390fd5b50505050565b60008073ffffffffffffffffffffffffffffffffffffffff166126ff836124d8565b73ffffffffffffffffffffffffffffffffffffffff1614159050919050565b6060600a805461272d90613a2a565b80601f016020809104026020016040519081016040528092919081815260200182805461275990613a2a565b80156127a65780601f1061277b576101008083540402835291602001916127a6565b820191906000526020600020905b81548152906001019060200180831161278957829003601f168201915b5050505050905090565b6060600060016127bf84612a2f565b01905060008167ffffffffffffffff8111156127de576127dd61314b565b5b6040519080825280601f01601f1916602001820160405280156128105781602001600182028036833780820191505090505b509050600082602001820190505b600115612873578080600190039150507f3031323334353637383961626364656600000000000000000000000000000000600a86061a8153600a8581612867576128666147ce565b5b0494506000850361281e575b819350505050919050565b612898828260405180602001604052806000815250612b82565b5050565b50505050565b50505050565b60006128c98473ffffffffffffffffffffffffffffffffffffffff16612bdd565b15612a22578373ffffffffffffffffffffffffffffffffffffffff1663150b7a026128f2612089565b8786866040518563ffffffff1660e01b81526004016129149493929190614852565b6020604051808303816000875af192505050801561295057506040513d601f19601f8201168201806040525081019061294d91906148b3565b60015b6129d2573d8060008114612980576040519150601f19603f3d011682016040523d82523d6000602084013e612985565b606091505b5060008151036129ca576040517f08c379a00000000000000000000000000000000000000000000000000000000081526004016129c1906147ae565b60405180910390fd5b805181602001fd5b63150b7a0260e01b7bffffffffffffffffffffffffffffffffffffffffffffffffffffffff1916817bffffffffffffffffffffffffffffffffffffffffffffffffffffffff191614915050612a27565b600190505b949350505050565b600080600090507a184f03e93ff9f4daa797ed6e38ed64bf6a1f0100000000000000008310612a8d577a184f03e93ff9f4daa797ed6e38ed64bf6a1f0100000000000000008381612a8357612a826147ce565b5b0492506040810190505b6d04ee2d6d415b85acef81000000008310612aca576d04ee2d6d415b85acef81000000008381612ac057612abf6147ce565b5b0492506020810190505b662386f26fc100008310612af957662386f26fc100008381612aef57612aee6147ce565b5b0492506010810190505b6305f5e1008310612b22576305f5e1008381612b1857612b176147ce565b5b0492506008810190505b6127108310612b47576127108381612b3d57612b3c6147ce565b5b0492506004810190505b60648310612b6a5760648381612b6057612b5f6147ce565b5b0492506002810190505b600a8310612b79576001810190505b80915050919050565b612b8c8383612c00565b612b9960008484846128a8565b612bd8576040517f08c379a0000000000000000000000000000000000000000000000000000000008152600401612bcf906147ae565b60405180910390fd5b505050565b6000808273ffffffffffffffffffffffffffffffffffffffff163b119050919050565b600073ffffffffffffffffffffffffffffffffffffffff168273ffffffffffffffffffffffffffffffffffffffff1603612c6f576040517f08c379a0000000000000000000000000000000000000000000000000000000008152600401612c669061492c565b60405180910390fd5b612c78816126dd565b15612cb8576040517f08c379a0000000000000000000000000000000000000000000000000000000008152600401612caf90614998565b60405180910390fd5b612cc660008383600161289c565b612ccf816126dd565b15612d0f576040517f08c379a0000000000000000000000000000000000000000000000000000000008152600401612d0690614998565b60405180910390fd5b6001600360008473ffffffffffffffffffffffffffffffffffffffff1673ffffffffffffffffffffffffffffffffffffffff16815260200190815260200160002060008282540192505081905550816002600083815260200190815260200160002060006101000a81548173ffffffffffffffffffffffffffffffffffffffff021916908373ffffffffffffffffffffffffffffffffffffffff160217905550808273ffffffffffffffffffffffffffffffffffffffff16600073ffffffffffffffffffffffffffffffffffffffff167fddf252ad1be2c89b69c2b068fc378daa952ba7f163c4a11628f55a4df523b3ef60405160405180910390a4612e196000838360016128a2565b5050565b6000604051905090565b600080fd5b600080fd5b60007fffffffff0000000000000000000000000000000000000000000000000000000082169050919050565b612e6681612e31565b8114612e7157600080fd5b50565b600081359050612e8381612e5d565b92915050565b600060208284031215612e9f57612e9e612e27565b5b6000612ead84828501612e74565b91505092915050565b60008115159050919050565b612ecb81612eb6565b82525050565b6000602082019050612ee66000830184612ec2565b92915050565b600081519050919050565b600082825260208201905092915050565b60005b83811015612f26578082015181840152602081019050612f0b565b60008484015250505050565b6000601f19601f8301169050919050565b6000612f4e82612eec565b612f588185612ef7565b9350612f68818560208601612f08565b612f7181612f32565b840191505092915050565b60006020820190508181036000830152612f968184612f43565b905092915050565b6000819050919050565b612fb181612f9e565b8114612fbc57600080fd5b50565b600081359050612fce81612fa8565b92915050565b600060208284031215612fea57612fe9612e27565b5b6000612ff884828501612fbf565b91505092915050565b600073ffffffffffffffffffffffffffffffffffffffff82169050919050565b600061302c82613001565b9050919050565b61303c81613021565b82525050565b60006020820190506130576000830184613033565b92915050565b61306681613021565b811461307157600080fd5b50565b6000813590506130838161305d565b92915050565b600080604083850312156130a05761309f612e27565b5b60006130ae85828601613074565b92505060206130bf85828601612fbf565b9150509250929050565b6130d281612f9e565b82525050565b60006020820190506130ed60008301846130c9565b92915050565b60008060006060848603121561310c5761310b612e27565b5b600061311a86828701613074565b935050602061312b86828701613074565b925050604061313c86828701612fbf565b9150509250925092565b600080fd5b7f4e487b7100000000000000000000000000000000000000000000000000000000600052604160045260246000fd5b61318382612f32565b810181811067ffffffffffffffff821117156131a2576131a161314b565b5b80604052505050565b60006131b5612e1d565b90506131c1828261317a565b919050565b600067ffffffffffffffff8211156131e1576131e061314b565b5b602082029050602081019050919050565b600080fd5b600061320a613205846131c6565b6131ab565b9050808382526020820190506020840283018581111561322d5761322c6131f2565b5b835b8181101561325657806132428882612fbf565b84526020840193505060208101905061322f565b5050509392505050565b600082601f83011261327557613274613146565b5b81356132858482602086016131f7565b91505092915050565b600067ffffffffffffffff8211156132a9576132a861314b565b5b602082029050602081019050919050565b600080fd5b600067ffffffffffffffff8211156132da576132d961314b565b5b6132e382612f32565b9050602081019050919050565b82818337600083830152505050565b600061331261330d846132bf565b6131ab565b90508281526020810184848401111561332e5761332d6132ba565b5b6133398482856132f0565b509392505050565b600082601f83011261335657613355613146565b5b81356133668482602086016132ff565b91505092915050565b600061338261337d8461328e565b6131ab565b905080838252602082019050602084028301858111156133a5576133a46131f2565b5b835b818110156133ec57803567ffffffffffffffff8111156133ca576133c9613146565b5b8086016133d78982613341565b855260208501945050506020810190506133a7565b5050509392505050565b600082601f83011261340b5761340a613146565b5b813561341b84826020860161336f565b91505092915050565b6000806000806080858703121561343e5761343d612e27565b5b600085013567ffffffffffffffff81111561345c5761345b612e2c565b5b61346887828801613260565b945050602085013567ffffffffffffffff81111561348957613488612e2c565b5b613495878288016133f6565b935050604085013567ffffffffffffffff8111156134b6576134b5612e2c565b5b6134c2878288016133f6565b925050606085013567ffffffffffffffff8111156134e3576134e2612e2c565b5b6134ef878288016133f6565b91505092959194509250565b6000806000806080858703121561351557613514612e27565b5b600061352387828801612fbf565b945050602085013567ffffffffffffffff81111561354457613543612e2c565b5b61355087828801613341565b935050604085013567ffffffffffffffff81111561357157613570612e2c565b5b61357d87828801613341565b925050606085013567ffffffffffffffff81111561359e5761359d612e2c565b5b6135aa87828801613341565b91505092959194509250565b6000602082840312156135cc576135cb612e27565b5b600082013567ffffffffffffffff8111156135ea576135e9612e2c565b5b6135f684828501613341565b91505092915050565b600060a08201905061361460008301886130c9565b81810360208301526136268187612f43565b9050818103604083015261363a8186612f43565b9050818103606083015261364e8185612f43565b905061365d6080830184613033565b9695505050505050565b600067ffffffffffffffff8211156136825761368161314b565b5b602082029050602081019050919050565b60006136a66136a184613667565b6131ab565b905080838252602082019050602084028301858111156136c9576136c86131f2565b5b835b818110156136f257806136de8882613074565b8452602084019350506020810190506136cb565b5050509392505050565b600082601f83011261371157613710613146565b5b8135613721848260208601613693565b91505092915050565b6000806040838503121561374157613740612e27565b5b600083013567ffffffffffffffff81111561375f5761375e612e2c565b5b61376b858286016136fc565b925050602083013567ffffffffffffffff81111561378c5761378b612e2c565b5b613798858286016133f6565b9150509250929050565b6000602082840312156137b8576137b7612e27565b5b60006137c684828501613074565b91505092915050565b6137d881612eb6565b81146137e357600080fd5b50565b6000813590506137f5816137cf565b92915050565b6000806040838503121561381257613811612e27565b5b600061382085828601613074565b9250506020613831858286016137e6565b9150509250929050565b600067ffffffffffffffff8211156138565761385561314b565b5b61385f82612f32565b9050602081019050919050565b600061387f61387a8461383b565b6131ab565b90508281526020810184848401111561389b5761389a6132ba565b5b6138a68482856132f0565b509392505050565b600082601f8301126138c3576138c2613146565b5b81356138d384826020860161386c565b91505092915050565b600080600080608085870312156138f6576138f5612e27565b5b600061390487828801613074565b945050602061391587828801613074565b935050604061392687828801612fbf565b925050606085013567ffffffffffffffff81111561394757613946612e2c565b5b613953878288016138ae565b91505092959194509250565b6000806040838503121561397657613975612e27565b5b600061398485828601613074565b925050602083013567ffffffffffffffff8111156139a5576139a4612e2c565b5b6139b185828601613341565b9150509250929050565b600080604083850312156139d2576139d1612e27565b5b60006139e085828601613074565b92505060206139f185828601613074565b9150509250929050565b7f4e487b7100000000000000000000000000000000000000000000000000000000600052602260045260246000fd5b60006002820490506001821680613a4257607f821691505b602082108103613a5557613a546139fb565b5b50919050565b7f4552433732313a20617070726f76616c20746f2063757272656e74206f776e6560008201527f7200000000000000000000000000000000000000000000000000000000000000602082015250565b6000613ab7602183612ef7565b9150613ac282613a5b565b604082019050919050565b60006020820190508181036000830152613ae681613aaa565b9050919050565b7f4552433732313a20617070726f76652063616c6c6572206973206e6f7420746f60008201527f6b656e206f776e6572206f7220617070726f76656420666f7220616c6c000000602082015250565b6000613b49603d83612ef7565b9150613b5482613aed565b604082019050919050565b60006020820190508181036000830152613b7881613b3c565b9050919050565b7f4552433732313a2063616c6c6572206973206e6f7420746f6b656e206f776e6560008201527f72206f7220617070726f76656400000000000000000000000000000000000000602082015250565b6000613bdb602d83612ef7565b9150613be682613b7f565b604082019050919050565b60006020820190508181036000830152613c0a81613bce565b9050919050565b7f43616c6c6572206973206e6f742041646d696e00000000000000000000000000600082015250565b6000613c47601383612ef7565b9150613c5282613c11565b602082019050919050565b60006020820190508181036000830152613c7681613c3a565b9050919050565b7f417272617973206d757374206265206f66207468652073616d65206c656e677460008201527f6800000000000000000000000000000000000000000000000000000000000000602082015250565b6000613cd9602183612ef7565b9150613ce482613c7d565b604082019050919050565b60006020820190508181036000830152613d0881613ccc565b9050919050565b7f4e487b7100000000000000000000000000000000000000000000000000000000600052603260045260246000fd5b600081905092915050565b6000613d5482612eec565b613d5e8185613d3e565b9350613d6e818560208601612f08565b80840191505092915050565b6000613d868284613d49565b915081905092915050565b60008190508160005260206000209050919050565b60006020601f8301049050919050565b600082821b905092915050565b600060088302613df37fffffffffffffffffffffffffffffffffffffffffffffffffffffffffffffffff82613db6565b613dfd8683613db6565b95508019841693508086168417925050509392505050565b6000819050919050565b6000613e3a613e35613e3084612f9e565b613e15565b612f9e565b9050919050565b6000819050919050565b613e5483613e1f565b613e68613e6082613e41565b848454613dc3565b825550505050565b600090565b613e7d613e70565b613e88818484613e4b565b505050565b5b81811015613eac57613ea1600082613e75565b600181019050613e8e565b5050565b601f821115613ef157613ec281613d91565b613ecb84613da6565b81016020851015613eda578190505b613eee613ee685613da6565b830182613e8d565b50505b505050565b600082821c905092915050565b6000613f1460001984600802613ef6565b1980831691505092915050565b6000613f2d8383613f03565b9150826002028217905092915050565b613f4682612eec565b67ffffffffffffffff811115613f5f57613f5e61314b565b5b613f698254613a2a565b613f74828285613eb0565b600060209050601f831160018114613fa75760008415613f95578287015190505b613f9f8582613f21565b865550614007565b601f198416613fb586613d91565b60005b82811015613fdd57848901518255600182019150602085019450602081019050613fb8565b86831015613ffa5784890151613ff6601f891682613f03565b8355505b6001600288020188555050505b505050505050565b7f4e487b7100000000000000000000000000000000000000000000000000000000600052601160045260246000fd5b600061404982612f9e565b91507fffffffffffffffffffffffffffffffffffffffffffffffffffffffffffffffff820361407b5761407a61400f565b5b600182019050919050565b7f53747564656e742049442063616e6e6f74206265207a65726f00000000000000600082015250565b60006140bc601983612ef7565b91506140c782614086565b602082019050919050565b600060208201905081810360008301526140eb816140af565b9050919050565b7f53747564656e74206d7573742065786973740000000000000000000000000000600082015250565b6000614128601283612ef7565b9150614133826140f2565b602082019050919050565b600060208201905081810360008301526141578161411b565b9050919050565b60008154905061416d81613a2a565b9050919050565b81810361418257505061425a565b61418b8261415e565b67ffffffffffffffff8111156141a4576141a361314b565b5b6141ae8254613a2a565b6141b9828285613eb0565b6000601f8311600181146141e857600084156141d6578287015490505b6141e08582613f21565b865550614253565b601f1984166141f687613d91565b965061420186613d91565b60005b8281101561422957848901548255600182019150600185019450602081019050614204565b868310156142465784890154614242601f891682613f03565b8355505b6001600288020188555050505b5050505050505b565b600061426782612f9e565b915061427283612f9e565b925082820190508082111561428a5761428961400f565b5b92915050565b7f4552433732313a20696e76616c696420746f6b656e2049440000000000000000600082015250565b60006142c6601883612ef7565b91506142d182614290565b602082019050919050565b600060208201905081810360008301526142f5816142b9565b9050919050565b7f4552433732313a2061646472657373207a65726f206973206e6f74206120766160008201527f6c6964206f776e65720000000000000000000000000000000000000000000000602082015250565b6000614358602983612ef7565b9150614363826142fc565b604082019050919050565b600060208201905081810360008301526143878161434b565b9050919050565b7f4552433732314d657461646174613a2055524920717565727920666f72206e6f60008201527f6e6578697374656e7420746f6b656e0000000000000000000000000000000000602082015250565b60006143ea602f83612ef7565b91506143f58261438e565b604082019050919050565b60006020820190508181036000830152614419816143dd565b9050919050565b6000815461442d81613a2a565b6144378186613d3e565b9450600182166000811461445257600181146144675761449a565b60ff198316865281151582028601935061449a565b61447085613d91565b60005b8381101561449257815481890152600182019150602081019050614473565b838801955050505b50505092915050565b60006144af8286613d49565b91506144bb8285613d49565b91506144c78284614420565b9150819050949350505050565b7f53747564656e7420416464726573732063616e6e6f74206265206e756c6c0000600082015250565b600061450a601e83612ef7565b9150614515826144d4565b602082019050919050565b60006020820190508181036000830152614539816144fd565b9050919050565b7f4e756c6c2076616c756573207265636569766564000000000000000000000000600082015250565b6000614576601483612ef7565b915061458182614540565b602082019050919050565b600060208201905081810360008301526145a581614569565b9050919050565b7f4552433732313a207472616e736665722066726f6d20696e636f72726563742060008201527f6f776e6572000000000000000000000000000000000000000000000000000000602082015250565b6000614608602583612ef7565b9150614613826145ac565b604082019050919050565b60006020820190508181036000830152614637816145fb565b9050919050565b7f4552433732313a207472616e7366657220746f20746865207a65726f2061646460008201527f7265737300000000000000000000000000000000000000000000000000000000602082015250565b600061469a602483612ef7565b91506146a58261463e565b604082019050919050565b600060208201905081810360008301526146c98161468d565b9050919050565b7f4552433732313a20617070726f766520746f2063616c6c657200000000000000600082015250565b6000614706601983612ef7565b9150614711826146d0565b602082019050919050565b60006020820190508181036000830152614735816146f9565b9050919050565b7f4552433732313a207472616e7366657220746f206e6f6e20455243373231526560008201527f63656976657220696d706c656d656e7465720000000000000000000000000000602082015250565b6000614798603283612ef7565b91506147a38261473c565b604082019050919050565b600060208201905081810360008301526147c78161478b565b9050919050565b7f4e487b7100000000000000000000000000000000000000000000000000000000600052601260045260246000fd5b600081519050919050565b600082825260208201905092915050565b6000614824826147fd565b61482e8185614808565b935061483e818560208601612f08565b61484781612f32565b840191505092915050565b60006080820190506148676000830187613033565b6148746020830186613033565b61488160408301856130c9565b81810360608301526148938184614819565b905095945050505050565b6000815190506148ad81612e5d565b92915050565b6000602082840312156148c9576148c8612e27565b5b60006148d78482850161489e565b91505092915050565b7f4552433732313a206d696e7420746f20746865207a65726f2061646472657373600082015250565b6000614916602083612ef7565b9150614921826148e0565b602082019050919050565b6000602082019050818103600083015261494581614909565b9050919050565b7f4552433732313a20746f6b656e20616c7265616479206d696e74656400000000600082015250565b6000614982601c83612ef7565b915061498d8261494c565b602082019050919050565b600060208201905081810360008301526149b181614975565b905091905056fea26469706673582212200017f5488f23a3e4b453d9c52cabbbf09e1de6e74c240cfe9887e3c9db4785d364736f6c63430008130033",
  "linkReferences": {},
  "deployedLinkReferences": {}
}