{
  "_format": "hh-sol-artifact-1",
  "contractName": "Certificate",
  "sourceName": "contracts/Certificate.sol",
  "abi": [
    {
      "inputs": [
        {
          "internalType": "address",
          "name": "_adminAddress",
          "type": "address"
        },
        {
          "internalType": "string",
          "name": "_baseURI_",
          "type": "string"
        }
      ],
      "stateMutability": "nonpayable",
      "type": "constructor"
    },
    {
      "anonymous": false,
      "inputs": [
        {
          "indexed": true,
          "internalType": "address",
          "name": "owner",
          "type": "address"
        },
        {
          "indexed": true,
          "internalType": "address",
          "name": "approved",
          "type": "address"
        },
        {
          "indexed": true,
          "internalType": "uint256",
          "name": "tokenId",
          "type": "uint256"
        }
      ],
      "name": "Approval",
      "type": "event"
    },
    {
      "anonymous": false,
      "inputs": [
        {
          "indexed": true,
          "internalType": "address",
          "name": "owner",
          "type": "address"
        },
        {
          "indexed": true,
          "internalType": "address",
          "name": "operator",
          "type": "address"
        },
        {
          "indexed": false,
          "internalType": "bool",
          "name": "approved",
          "type": "bool"
        }
      ],
      "name": "ApprovalForAll",
      "type": "event"
    },
    {
      "anonymous": false,
      "inputs": [
        {
          "indexed": true,
          "internalType": "address",
          "name": "from",
          "type": "address"
        },
        {
          "indexed": true,
          "internalType": "address",
          "name": "to",
          "type": "address"
        },
        {
          "indexed": true,
          "internalType": "uint256",
          "name": "tokenId",
          "type": "uint256"
        }
      ],
      "name": "Transfer",
      "type": "event"
    },
    {
      "inputs": [
        {
          "internalType": "address",
          "name": "_studentAddress",
          "type": "address"
        },
        {
          "internalType": "string",
          "name": "_studentEmail",
          "type": "string"
        }
      ],
      "name": "addStudentAddress",
      "outputs": [],
      "stateMutability": "nonpayable",
      "type": "function"
    },
    {
      "inputs": [
        {
          "internalType": "uint256",
          "name": "_studentId",
          "type": "uint256"
        },
        {
          "internalType": "string",
          "name": "_studentCourse",
          "type": "string"
        },
        {
          "internalType": "string",
          "name": "_studentEmail",
          "type": "string"
        },
        {
          "internalType": "string",
          "name": "_studentGPA",
          "type": "string"
        }
      ],
      "name": "addStudentInfo",
      "outputs": [],
      "stateMutability": "nonpayable",
      "type": "function"
    },
    {
      "inputs": [],
      "name": "adminAddress",
      "outputs": [
        {
          "internalType": "address",
          "name": "",
          "type": "address"
        }
      ],
      "stateMutability": "view",
      "type": "function"
    },
    {
      "inputs": [
        {
          "internalType": "address",
          "name": "to",
          "type": "address"
        },
        {
          "internalType": "uint256",
          "name": "tokenId",
          "type": "uint256"
        }
      ],
      "name": "approve",
      "outputs": [],
      "stateMutability": "nonpayable",
      "type": "function"
    },
    {
      "inputs": [
        {
          "internalType": "address",
          "name": "owner",
          "type": "address"
        }
      ],
      "name": "balanceOf",
      "outputs": [
        {
          "internalType": "uint256",
          "name": "",
          "type": "uint256"
        }
      ],
      "stateMutability": "view",
      "type": "function"
    },
    {
      "inputs": [],
      "name": "baseExtension",
      "outputs": [
        {
          "internalType": "string",
          "name": "",
          "type": "string"
        }
      ],
      "stateMutability": "view",
      "type": "function"
    },
    {
      "inputs": [],
      "name": "baseURI",
      "outputs": [
        {
          "internalType": "string",
          "name": "",
          "type": "string"
        }
      ],
      "stateMutability": "view",
      "type": "function"
    },
    {
      "inputs": [
        {
          "internalType": "address[]",
          "name": "_studentAddresses",
          "type": "address[]"
        },
        {
          "internalType": "string[]",
          "name": "_studentEmails",
          "type": "string[]"
        }
      ],
      "name": "batchAddStudentAddress",
      "outputs": [],
      "stateMutability": "nonpayable",
      "type": "function"
    },
    {
      "inputs": [
        {
          "internalType": "uint256[]",
          "name": "_studentIds",
          "type": "uint256[]"
        },
        {
          "internalType": "string[]",
          "name": "_studentCourses",
          "type": "string[]"
        },
        {
          "internalType": "string[]",
          "name": "_studentEmails",
          "type": "string[]"
        },
        {
          "internalType": "string[]",
          "name": "_studentGPAs",
          "type": "string[]"
        }
      ],
      "name": "batchAddStudentsInfo",
      "outputs": [],
      "stateMutability": "nonpayable",
      "type": "function"
    },
    {
      "inputs": [],
      "name": "batchMint",
      "outputs": [
        {
          "internalType": "bool",
          "name": "",
          "type": "bool"
        }
      ],
      "stateMutability": "nonpayable",
      "type": "function"
    },
    {
      "inputs": [
        {
          "internalType": "address",
          "name": "_newAdmin",
          "type": "address"
        }
      ],
      "name": "changeAdmin",
      "outputs": [],
      "stateMutability": "nonpayable",
      "type": "function"
    },
    {
      "inputs": [
        {
          "internalType": "uint256",
          "name": "tokenId",
          "type": "uint256"
        }
      ],
      "name": "getApproved",
      "outputs": [
        {
          "internalType": "address",
          "name": "",
          "type": "address"
        }
      ],
      "stateMutability": "view",
      "type": "function"
    },
    {
      "inputs": [
        {
          "internalType": "address",
          "name": "owner",
          "type": "address"
        },
        {
          "internalType": "address",
          "name": "operator",
          "type": "address"
        }
      ],
      "name": "isApprovedForAll",
      "outputs": [
        {
          "internalType": "bool",
          "name": "",
          "type": "bool"
        }
      ],
      "stateMutability": "view",
      "type": "function"
    },
    {
      "inputs": [
        {
          "internalType": "address",
          "name": "",
          "type": "address"
        }
      ],
      "name": "isMinted",
      "outputs": [
        {
          "internalType": "bool",
          "name": "",
          "type": "bool"
        }
      ],
      "stateMutability": "view",
      "type": "function"
    },
    {
      "inputs": [
        {
          "internalType": "address",
          "name": "",
          "type": "address"
        }
      ],
      "name": "isStudent",
      "outputs": [
        {
          "internalType": "bool",
          "name": "",
          "type": "bool"
        }
      ],
      "stateMutability": "view",
      "type": "function"
    },
    {
      "inputs": [],
      "name": "name",
      "outputs": [
        {
          "internalType": "string",
          "name": "",
          "type": "string"
        }
      ],
      "stateMutability": "view",
      "type": "function"
    },
    {
      "inputs": [],
      "name": "noOfStudents",
      "outputs": [
        {
          "internalType": "uint256",
          "name": "",
          "type": "uint256"
        }
      ],
      "stateMutability": "view",
      "type": "function"
    },
    {
      "inputs": [
        {
          "internalType": "uint256",
          "name": "tokenId",
          "type": "uint256"
        }
      ],
      "name": "ownerOf",
      "outputs": [
        {
          "internalType": "address",
          "name": "",
          "type": "address"
        }
      ],
      "stateMutability": "view",
      "type": "function"
    },
    {
      "inputs": [
        {
          "internalType": "address",
          "name": "from",
          "type": "address"
        },
        {
          "internalType": "address",
          "name": "to",
          "type": "address"
        },
        {
          "internalType": "uint256",
          "name": "tokenId",
          "type": "uint256"
        }
      ],
      "name": "safeTransferFrom",
      "outputs": [],
      "stateMutability": "nonpayable",
      "type": "function"
    },
    {
      "inputs": [
        {
          "internalType": "address",
          "name": "from",
          "type": "address"
        },
        {
          "internalType": "address",
          "name": "to",
          "type": "address"
        },
        {
          "internalType": "uint256",
          "name": "tokenId",
          "type": "uint256"
        },
        {
          "internalType": "bytes",
          "name": "data",
          "type": "bytes"
        }
      ],
      "name": "safeTransferFrom",
      "outputs": [],
      "stateMutability": "nonpayable",
      "type": "function"
    },
    {
      "inputs": [
        {
          "internalType": "address",
          "name": "operator",
          "type": "address"
        },
        {
          "internalType": "bool",
          "name": "approved",
          "type": "bool"
        }
      ],
      "name": "setApprovalForAll",
      "outputs": [],
      "stateMutability": "nonpayable",
      "type": "function"
    },
    {
      "inputs": [
        {
          "internalType": "string",
          "name": "_newBaseURI",
          "type": "string"
        }
      ],
      "name": "setBaseURI",
      "outputs": [],
      "stateMutability": "nonpayable",
      "type": "function"
    },
    {
      "inputs": [
        {
          "internalType": "uint256",
          "name": "",
          "type": "uint256"
        }
      ],
      "name": "studentIndex",
      "outputs": [
        {
          "internalType": "uint256",
          "name": "studentId",
          "type": "uint256"
        },
        {
          "internalType": "string",
          "name": "studentCourse",
          "type": "string"
        },
        {
          "internalType": "string",
          "name": "studentEmail",
          "type": "string"
        },
        {
          "internalType": "string",
          "name": "studentGPA",
          "type": "string"
        },
        {
          "internalType": "address",
          "name": "studentAddress",
          "type": "address"
        }
      ],
      "stateMutability": "view",
      "type": "function"
    },
    {
      "inputs": [
        {
          "internalType": "string",
          "name": "",
          "type": "string"
        }
      ],
      "name": "studentInfo",
      "outputs": [
        {
          "internalType": "uint256",
          "name": "studentId",
          "type": "uint256"
        },
        {
          "internalType": "string",
          "name": "studentCourse",
          "type": "string"
        },
        {
          "internalType": "string",
          "name": "studentEmail",
          "type": "string"
        },
        {
          "internalType": "string",
          "name": "studentGPA",
          "type": "string"
        },
        {
          "internalType": "address",
          "name": "studentAddress",
          "type": "address"
        }
      ],
      "stateMutability": "view",
      "type": "function"
    },
    {
      "inputs": [
        {
          "internalType": "bytes4",
          "name": "interfaceId",
          "type": "bytes4"
        }
      ],
      "name": "supportsInterface",
      "outputs": [
        {
          "internalType": "bool",
          "name": "",
          "type": "bool"
        }
      ],
      "stateMutability": "view",
      "type": "function"
    },
    {
      "inputs": [],
      "name": "symbol",
      "outputs": [
        {
          "internalType": "string",
          "name": "",
          "type": "string"
        }
      ],
      "stateMutability": "view",
      "type": "function"
    },
    {
      "inputs": [
        {
          "internalType": "uint256",
          "name": "tokenID",
          "type": "uint256"
        }
      ],
      "name": "tokenURI",
      "outputs": [
        {
          "internalType": "string",
          "name": "",
          "type": "string"
        }
      ],
      "stateMutability": "view",
      "type": "function"
    },
    {
      "inputs": [],
      "name": "totalSupply",
      "outputs": [
        {
          "internalType": "uint256",
          "name": "",
          "type": "uint256"
        }
      ],
      "stateMutability": "view",
      "type": "function"
    },
    {
      "inputs": [
        {
          "internalType": "address",
          "name": "from",
          "type": "address"
        },
        {
          "internalType": "address",
          "name": "to",
          "type": "address"
        },
        {
          "internalType": "uint256",
          "name": "tokenId",
          "type": "uint256"
        }
      ],
      "name": "transferFrom",
      "outputs": [],
      "stateMutability": "nonpayable",
      "type": "function"
    }
  ],
  "bytecode": "0x60806040526040518060400160405280600581526020017f2e6a736f6e000000000000000000000000000000000000000000000000000000815250600a90816200004a9190620003e5565b503480156200005857600080fd5b5060405162004f5f38038062004f5f83398181016040528101906200007e919062000695565b6040518060400160405280600b81526020017f43657274696669636174650000000000000000000000000000000000000000008152506040518060400160405280600481526020017f43525446000000000000000000000000000000000000000000000000000000008152508160009081620000fb9190620003e5565b5080600190816200010d9190620003e5565b50505081600660006101000a81548173ffffffffffffffffffffffffffffffffffffffff021916908373ffffffffffffffffffffffffffffffffffffffff1602179055508060099081620001629190620003e5565b505050620006fb565b600081519050919050565b7f4e487b7100000000000000000000000000000000000000000000000000000000600052604160045260246000fd5b7f4e487b7100000000000000000000000000000000000000000000000000000000600052602260045260246000fd5b60006002820490506001821680620001ed57607f821691505b602082108103620002035762000202620001a5565b5b50919050565b60008190508160005260206000209050919050565b60006020601f8301049050919050565b600082821b905092915050565b6000600883026200026d7fffffffffffffffffffffffffffffffffffffffffffffffffffffffffffffffff826200022e565b6200027986836200022e565b95508019841693508086168417925050509392505050565b6000819050919050565b6000819050919050565b6000620002c6620002c0620002ba8462000291565b6200029b565b62000291565b9050919050565b6000819050919050565b620002e283620002a5565b620002fa620002f182620002cd565b8484546200023b565b825550505050565b600090565b6200031162000302565b6200031e818484620002d7565b505050565b5b8181101562000346576200033a60008262000307565b60018101905062000324565b5050565b601f82111562000395576200035f8162000209565b6200036a846200021e565b810160208510156200037a578190505b6200039262000389856200021e565b83018262000323565b50505b505050565b600082821c905092915050565b6000620003ba600019846008026200039a565b1980831691505092915050565b6000620003d58383620003a7565b9150826002028217905092915050565b620003f0826200016b565b67ffffffffffffffff8111156200040c576200040b62000176565b5b620004188254620001d4565b620004258282856200034a565b600060209050601f8311600181146200045d576000841562000448578287015190505b620004548582620003c7565b865550620004c4565b601f1984166200046d8662000209565b60005b82811015620004975784890151825560018201915060208501945060208101905062000470565b86831015620004b75784890151620004b3601f891682620003a7565b8355505b6001600288020188555050505b505050505050565b6000604051905090565b600080fd5b600080fd5b600073ffffffffffffffffffffffffffffffffffffffff82169050919050565b60006200050d82620004e0565b9050919050565b6200051f8162000500565b81146200052b57600080fd5b50565b6000815190506200053f8162000514565b92915050565b600080fd5b600080fd5b6000601f19601f8301169050919050565b6200056b826200054f565b810181811067ffffffffffffffff821117156200058d576200058c62000176565b5b80604052505050565b6000620005a2620004cc565b9050620005b0828262000560565b919050565b600067ffffffffffffffff821115620005d357620005d262000176565b5b620005de826200054f565b9050602081019050919050565b60005b838110156200060b578082015181840152602081019050620005ee565b60008484015250505050565b60006200062e6200062884620005b5565b62000596565b9050828152602081018484840111156200064d576200064c6200054a565b5b6200065a848285620005eb565b509392505050565b600082601f8301126200067a576200067962000545565b5b81516200068c84826020860162000617565b91505092915050565b60008060408385031215620006af57620006ae620004d6565b5b6000620006bf858286016200052e565b925050602083015167ffffffffffffffff811115620006e357620006e2620004db565b5b620006f18582860162000662565b9150509250929050565b614854806200070b6000396000f3fe608060405234801561001057600080fd5b50600436106101cf5760003560e01c80636c0360eb11610104578063c6682862116100a2578063e3424c9311610071578063e3424c9314610544578063e985e9c514610562578063f9f2a7ce14610592578063fc6f9468146105c2576101cf565b8063c6682862146104a6578063c87b56dd146104c4578063cde6a8db146104f4578063dc986b1414610528576101cf565b80638f283970116100de5780638f2839701461043457806395d89b4114610450578063a22cb4651461046e578063b88d4fde1461048a576101cf565b80636c0360eb146103b657806370a08231146103d457806382f7d39214610404576101cf565b80632e880d63116101715780635320cebe1161014b5780635320cebe1461031a57806355f804b31461034e57806362d32e461461036a5780636352211e14610386576101cf565b80632e880d63146102c457806330dc1553146102e057806342842e0e146102fe576101cf565b8063095ea7b3116101ad578063095ea7b31461025257806318160ddd1461026e57806323b872dd1461028c5780632abba93b146102a8576101cf565b806301ffc9a7146101d457806306fdde0314610204578063081812fc14610222575b600080fd5b6101ee60048036038101906101e99190612cef565b6105e0565b6040516101fb9190612d37565b60405180910390f35b61020c6106c2565b6040516102199190612de2565b60405180910390f35b61023c60048036038101906102379190612e3a565b610754565b6040516102499190612ea8565b60405180910390f35b61026c60048036038101906102679190612eef565b61079a565b005b6102766108b1565b6040516102839190612f3e565b60405180910390f35b6102a660048036038101906102a19190612f59565b6108b7565b005b6102c260048036038101906102bd919061328a565b610917565b005b6102de60048036038101906102d99190613361565b610ba5565b005b6102e8610d76565b6040516102f59190612f3e565b60405180910390f35b61031860048036038101906103139190612f59565b610d7c565b005b610334600480360381019061032f919061341c565b610d9c565b604051610345959493929190613465565b60405180910390f35b6103686004803603810190610363919061341c565b610fa0565b005b610384600480360381019061037f9190613590565b611043565b005b6103a0600480360381019061039b9190612e3a565b611253565b6040516103ad9190612ea8565b60405180910390f35b6103be6112d9565b6040516103cb9190612de2565b60405180910390f35b6103ee60048036038101906103e99190613608565b611367565b6040516103fb9190612f3e565b60405180910390f35b61041e60048036038101906104199190613608565b61141e565b60405161042b9190612d37565b60405180910390f35b61044e60048036038101906104499190613608565b61143e565b005b61045861154b565b6040516104659190612de2565b60405180910390f35b61048860048036038101906104839190613661565b6115dd565b005b6104a4600480360381019061049f9190613742565b6115f3565b005b6104ae611655565b6040516104bb9190612de2565b60405180910390f35b6104de60048036038101906104d99190612e3a565b6116e3565b6040516104eb9190612de2565b60405180910390f35b61050e60048036038101906105099190612e3a565b61178d565b60405161051f959493929190613465565b60405180910390f35b610542600480360381019061053d91906137c5565b61197b565b005b61054c611bc7565b6040516105599190612d37565b60405180910390f35b61057c60048036038101906105779190613821565b611d60565b6040516105899190612d37565b60405180910390f35b6105ac60048036038101906105a79190613608565b611df4565b6040516105b99190612d37565b60405180910390f35b6105ca611e14565b6040516105d79190612ea8565b60405180910390f35b60007f80ac58cd000000000000000000000000000000000000000000000000000000007bffffffffffffffffffffffffffffffffffffffffffffffffffffffff1916827bffffffffffffffffffffffffffffffffffffffffffffffffffffffff191614806106ab57507f5b5e139f000000000000000000000000000000000000000000000000000000007bffffffffffffffffffffffffffffffffffffffffffffffffffffffff1916827bffffffffffffffffffffffffffffffffffffffffffffffffffffffff1916145b806106bb57506106ba82611e3a565b5b9050919050565b6060600080546106d190613890565b80601f01602080910402602001604051908101604052809291908181526020018280546106fd90613890565b801561074a5780601f1061071f5761010080835404028352916020019161074a565b820191906000526020600020905b81548152906001019060200180831161072d57829003601f168201915b5050505050905090565b600061075f82611ea4565b6004600083815260200190815260200160002060009054906101000a900473ffffffffffffffffffffffffffffffffffffffff169050919050565b60006107a582611253565b90508073ffffffffffffffffffffffffffffffffffffffff168373ffffffffffffffffffffffffffffffffffffffff1603610815576040517f08c379a000000000000000000000000000000000000000000000000000000000815260040161080c90613933565b60405180910390fd5b8073ffffffffffffffffffffffffffffffffffffffff16610834611eef565b73ffffffffffffffffffffffffffffffffffffffff16148061086357506108628161085d611eef565b611d60565b5b6108a2576040517f08c379a0000000000000000000000000000000000000000000000000000000008152600401610899906139c5565b60405180910390fd5b6108ac8383611ef7565b505050565b60075481565b6108c86108c2611eef565b82611fb0565b610907576040517f08c379a00000000000000000000000000000000000000000000000000000000081526004016108fe90613a57565b60405180910390fd5b610912838383612045565b505050565b600660009054906101000a900473ffffffffffffffffffffffffffffffffffffffff1673ffffffffffffffffffffffffffffffffffffffff163373ffffffffffffffffffffffffffffffffffffffff16146109a7576040517f08c379a000000000000000000000000000000000000000000000000000000000815260040161099e90613ac3565b60405180910390fd5b825184511480156109b9575081518351145b80156109c6575080518251145b610a05576040517f08c379a00000000000000000000000000000000000000000000000000000000081526004016109fc90613b55565b60405180910390fd5b60005b8251811015610b9e5760006040518060a00160405280878481518110610a3157610a30613b75565b5b60200260200101518152602001868481518110610a5157610a50613b75565b5b60200260200101518152602001858481518110610a7157610a70613b75565b5b60200260200101518152602001848481518110610a9157610a90613b75565b5b60200260200101518152602001600073ffffffffffffffffffffffffffffffffffffffff16815250905080600d858481518110610ad157610ad0613b75565b5b6020026020010151604051610ae69190613be0565b9081526020016040518091039020600082015181600001556020820151816001019081610b139190613da3565b506040820151816002019081610b299190613da3565b506060820151816003019081610b3f9190613da3565b5060808201518160040160006101000a81548173ffffffffffffffffffffffffffffffffffffffff021916908373ffffffffffffffffffffffffffffffffffffffff160217905550905050508080610b9690613ea4565b915050610a08565b5050505050565b600660009054906101000a900473ffffffffffffffffffffffffffffffffffffffff1673ffffffffffffffffffffffffffffffffffffffff163373ffffffffffffffffffffffffffffffffffffffff1614610c35576040517f08c379a0000000000000000000000000000000000000000000000000000000008152600401610c2c90613ac3565b60405180910390fd5b60008403610c78576040517f08c379a0000000000000000000000000000000000000000000000000000000008152600401610c6f90613f38565b60405180910390fd5b60006040518060a00160405280868152602001858152602001848152602001838152602001600073ffffffffffffffffffffffffffffffffffffffff16815250905080600d84604051610ccb9190613be0565b9081526020016040518091039020600082015181600001556020820151816001019081610cf89190613da3565b506040820151816002019081610d0e9190613da3565b506060820151816003019081610d249190613da3565b5060808201518160040160006101000a81548173ffffffffffffffffffffffffffffffffffffffff021916908373ffffffffffffffffffffffffffffffffffffffff1602179055509050505050505050565b60085481565b610d97838383604051806020016040528060008152506115f3565b505050565b600d81805160208101820180518482526020830160208501208183528095505050505050600091509050806000015490806001018054610ddb90613890565b80601f0160208091040260200160405190810160405280929190818152602001828054610e0790613890565b8015610e545780601f10610e2957610100808354040283529160200191610e54565b820191906000526020600020905b815481529060010190602001808311610e3757829003601f168201915b505050505090806002018054610e6990613890565b80601f0160208091040260200160405190810160405280929190818152602001828054610e9590613890565b8015610ee25780601f10610eb757610100808354040283529160200191610ee2565b820191906000526020600020905b815481529060010190602001808311610ec557829003601f168201915b505050505090806003018054610ef790613890565b80601f0160208091040260200160405190810160405280929190818152602001828054610f2390613890565b8015610f705780601f10610f4557610100808354040283529160200191610f70565b820191906000526020600020905b815481529060010190602001808311610f5357829003601f168201915b5050505050908060040160009054906101000a900473ffffffffffffffffffffffffffffffffffffffff16905085565b600660009054906101000a900473ffffffffffffffffffffffffffffffffffffffff1673ffffffffffffffffffffffffffffffffffffffff163373ffffffffffffffffffffffffffffffffffffffff1614611030576040517f08c379a000000000000000000000000000000000000000000000000000000000815260040161102790613ac3565b60405180910390fd5b806009908161103f9190613da3565b5050565b600660009054906101000a900473ffffffffffffffffffffffffffffffffffffffff1673ffffffffffffffffffffffffffffffffffffffff163373ffffffffffffffffffffffffffffffffffffffff16146110d3576040517f08c379a00000000000000000000000000000000000000000000000000000000081526004016110ca90613ac3565b60405180910390fd5b8051825114611117576040517f08c379a000000000000000000000000000000000000000000000000000000000815260040161110e90613b55565b60405180910390fd5b60005b815181101561124e576000600d83838151811061113a57611139613b75565b5b602002602001015160405161114f9190613be0565b908152602001604051809103902060000154036111a1576040517f08c379a000000000000000000000000000000000000000000000000000000000815260040161119890613fa4565b60405180910390fd5b6000600d8383815181106111b8576111b7613b75565b5b60200260200101516040516111cd9190613be0565b908152602001604051809103902090508382815181106111f0576111ef613b75565b5b60200260200101518160040160006101000a81548173ffffffffffffffffffffffffffffffffffffffff021916908373ffffffffffffffffffffffffffffffffffffffff16021790555050808061124690613ea4565b91505061111a565b505050565b60008061125f8361233e565b9050600073ffffffffffffffffffffffffffffffffffffffff168173ffffffffffffffffffffffffffffffffffffffff16036112d0576040517f08c379a00000000000000000000000000000000000000000000000000000000081526004016112c790614010565b60405180910390fd5b80915050919050565b600980546112e690613890565b80601f016020809104026020016040519081016040528092919081815260200182805461131290613890565b801561135f5780601f106113345761010080835404028352916020019161135f565b820191906000526020600020905b81548152906001019060200180831161134257829003601f168201915b505050505081565b60008073ffffffffffffffffffffffffffffffffffffffff168273ffffffffffffffffffffffffffffffffffffffff16036113d7576040517f08c379a00000000000000000000000000000000000000000000000000000000081526004016113ce906140a2565b60405180910390fd5b600360008373ffffffffffffffffffffffffffffffffffffffff1673ffffffffffffffffffffffffffffffffffffffff168152602001908152602001600020549050919050565b600b6020528060005260406000206000915054906101000a900460ff1681565b600660009054906101000a900473ffffffffffffffffffffffffffffffffffffffff1673ffffffffffffffffffffffffffffffffffffffff163373ffffffffffffffffffffffffffffffffffffffff16146114ce576040517f08c379a00000000000000000000000000000000000000000000000000000000081526004016114c590613ac3565b60405180910390fd5b600073ffffffffffffffffffffffffffffffffffffffff168173ffffffffffffffffffffffffffffffffffffffff160361150757600080fd5b80600660006101000a81548173ffffffffffffffffffffffffffffffffffffffff021916908373ffffffffffffffffffffffffffffffffffffffff16021790555050565b60606001805461155a90613890565b80601f016020809104026020016040519081016040528092919081815260200182805461158690613890565b80156115d35780601f106115a8576101008083540402835291602001916115d3565b820191906000526020600020905b8154815290600101906020018083116115b657829003601f168201915b5050505050905090565b6115ef6115e8611eef565b838361237b565b5050565b6116046115fe611eef565b83611fb0565b611643576040517f08c379a000000000000000000000000000000000000000000000000000000000815260040161163a90613a57565b60405180910390fd5b61164f848484846124e7565b50505050565b600a805461166290613890565b80601f016020809104026020016040519081016040528092919081815260200182805461168e90613890565b80156116db5780601f106116b0576101008083540402835291602001916116db565b820191906000526020600020905b8154815290600101906020018083116116be57829003601f168201915b505050505081565b60606116ee82612543565b61172d576040517f08c379a000000000000000000000000000000000000000000000000000000000815260040161172490614134565b60405180910390fd5b6000611737612584565b905060008151116117575760405180602001604052806000815250611785565b8061176184612616565b600a604051602001611775939291906141d7565b6040516020818303038152906040525b915050919050565b600e6020528060005260406000206000915090508060000154908060010180546117b690613890565b80601f01602080910402602001604051908101604052809291908181526020018280546117e290613890565b801561182f5780601f106118045761010080835404028352916020019161182f565b820191906000526020600020905b81548152906001019060200180831161181257829003601f168201915b50505050509080600201805461184490613890565b80601f016020809104026020016040519081016040528092919081815260200182805461187090613890565b80156118bd5780601f10611892576101008083540402835291602001916118bd565b820191906000526020600020905b8154815290600101906020018083116118a057829003601f168201915b5050505050908060030180546118d290613890565b80601f01602080910402602001604051908101604052809291908181526020018280546118fe90613890565b801561194b5780601f106119205761010080835404028352916020019161194b565b820191906000526020600020905b81548152906001019060200180831161192e57829003601f168201915b5050505050908060040160009054906101000a900473ffffffffffffffffffffffffffffffffffffffff16905085565b600660009054906101000a900473ffffffffffffffffffffffffffffffffffffffff1673ffffffffffffffffffffffffffffffffffffffff163373ffffffffffffffffffffffffffffffffffffffff1614611a0b576040517f08c379a0000000000000000000000000000000000000000000000000000000008152600401611a0290613ac3565b60405180910390fd5b600073ffffffffffffffffffffffffffffffffffffffff168273ffffffffffffffffffffffffffffffffffffffff1603611a7a576040517f08c379a0000000000000000000000000000000000000000000000000000000008152600401611a7190614254565b60405180910390fd5b6000600d82604051611a8c9190613be0565b90815260200160405180910390209050828160040160006101000a81548173ffffffffffffffffffffffffffffffffffffffff021916908373ffffffffffffffffffffffffffffffffffffffff16021790555080600e600060085481526020019081526020016000206000820154816000015560018201816001019081611b13919061428a565b5060028201816002019081611b28919061428a565b5060038201816003019081611b3d919061428a565b506004820160009054906101000a900473ffffffffffffffffffffffffffffffffffffffff168160040160006101000a81548173ffffffffffffffffffffffffffffffffffffffff021916908373ffffffffffffffffffffffffffffffffffffffff160217905550905050600160086000828254611bbb9190614372565b92505081905550505050565b6000600660009054906101000a900473ffffffffffffffffffffffffffffffffffffffff1673ffffffffffffffffffffffffffffffffffffffff163373ffffffffffffffffffffffffffffffffffffffff1614611c59576040517f08c379a0000000000000000000000000000000000000000000000000000000008152600401611c5090613ac3565b60405180910390fd5b60005b600854811015611d58576000600e60008381526020019081526020016000206000015490506000600e600084815260200190815260200160002060040160009054906101000a900473ffffffffffffffffffffffffffffffffffffffff16905060008214158015611cfa5750600073ffffffffffffffffffffffffffffffffffffffff168173ffffffffffffffffffffffffffffffffffffffff1614155b611d39576040517f08c379a0000000000000000000000000000000000000000000000000000000008152600401611d30906143f2565b60405180910390fd5b611d4381836126e4565b50508080611d5090613ea4565b915050611c5c565b506001905090565b6000600560008473ffffffffffffffffffffffffffffffffffffffff1673ffffffffffffffffffffffffffffffffffffffff16815260200190815260200160002060008373ffffffffffffffffffffffffffffffffffffffff1673ffffffffffffffffffffffffffffffffffffffff16815260200190815260200160002060009054906101000a900460ff16905092915050565b600c6020528060005260406000206000915054906101000a900460ff1681565b600660009054906101000a900473ffffffffffffffffffffffffffffffffffffffff1681565b60007f01ffc9a7000000000000000000000000000000000000000000000000000000007bffffffffffffffffffffffffffffffffffffffffffffffffffffffff1916827bffffffffffffffffffffffffffffffffffffffffffffffffffffffff1916149050919050565b611ead81612543565b611eec576040517f08c379a0000000000000000000000000000000000000000000000000000000008152600401611ee390614010565b60405180910390fd5b50565b600033905090565b816004600083815260200190815260200160002060006101000a81548173ffffffffffffffffffffffffffffffffffffffff021916908373ffffffffffffffffffffffffffffffffffffffff160217905550808273ffffffffffffffffffffffffffffffffffffffff16611f6a83611253565b73ffffffffffffffffffffffffffffffffffffffff167f8c5be1e5ebec7d5bd14f71427d1e84f3dd0314c0f7b2291e5b200ac8c7c3b92560405160405180910390a45050565b600080611fbc83611253565b90508073ffffffffffffffffffffffffffffffffffffffff168473ffffffffffffffffffffffffffffffffffffffff161480611ffe5750611ffd8185611d60565b5b8061203c57508373ffffffffffffffffffffffffffffffffffffffff1661202484610754565b73ffffffffffffffffffffffffffffffffffffffff16145b91505092915050565b8273ffffffffffffffffffffffffffffffffffffffff1661206582611253565b73ffffffffffffffffffffffffffffffffffffffff16146120bb576040517f08c379a00000000000000000000000000000000000000000000000000000000081526004016120b290614484565b60405180910390fd5b600073ffffffffffffffffffffffffffffffffffffffff168273ffffffffffffffffffffffffffffffffffffffff160361212a576040517f08c379a000000000000000000000000000000000000000000000000000000000815260040161212190614516565b60405180910390fd5b6121378383836001612702565b8273ffffffffffffffffffffffffffffffffffffffff1661215782611253565b73ffffffffffffffffffffffffffffffffffffffff16146121ad576040517f08c379a00000000000000000000000000000000000000000000000000000000081526004016121a490614484565b60405180910390fd5b6004600082815260200190815260200160002060006101000a81549073ffffffffffffffffffffffffffffffffffffffff02191690556001600360008573ffffffffffffffffffffffffffffffffffffffff1673ffffffffffffffffffffffffffffffffffffffff168152602001908152602001600020600082825403925050819055506001600360008473ffffffffffffffffffffffffffffffffffffffff1673ffffffffffffffffffffffffffffffffffffffff16815260200190815260200160002060008282540192505081905550816002600083815260200190815260200160002060006101000a81548173ffffffffffffffffffffffffffffffffffffffff021916908373ffffffffffffffffffffffffffffffffffffffff160217905550808273ffffffffffffffffffffffffffffffffffffffff168473ffffffffffffffffffffffffffffffffffffffff167fddf252ad1be2c89b69c2b068fc378daa952ba7f163c4a11628f55a4df523b3ef60405160405180910390a46123398383836001612708565b505050565b60006002600083815260200190815260200160002060009054906101000a900473ffffffffffffffffffffffffffffffffffffffff169050919050565b8173ffffffffffffffffffffffffffffffffffffffff168373ffffffffffffffffffffffffffffffffffffffff16036123e9576040517f08c379a00000000000000000000000000000000000000000000000000000000081526004016123e090614582565b60405180910390fd5b80600560008573ffffffffffffffffffffffffffffffffffffffff1673ffffffffffffffffffffffffffffffffffffffff16815260200190815260200160002060008473ffffffffffffffffffffffffffffffffffffffff1673ffffffffffffffffffffffffffffffffffffffff16815260200190815260200160002060006101000a81548160ff0219169083151502179055508173ffffffffffffffffffffffffffffffffffffffff168373ffffffffffffffffffffffffffffffffffffffff167f17307eab39ab6107e8899845ad3d59bd9653f200f220920489ca2b5937696c31836040516124da9190612d37565b60405180910390a3505050565b6124f2848484612045565b6124fe8484848461270e565b61253d576040517f08c379a000000000000000000000000000000000000000000000000000000000815260040161253490614614565b60405180910390fd5b50505050565b60008073ffffffffffffffffffffffffffffffffffffffff166125658361233e565b73ffffffffffffffffffffffffffffffffffffffff1614159050919050565b60606009805461259390613890565b80601f01602080910402602001604051908101604052809291908181526020018280546125bf90613890565b801561260c5780601f106125e15761010080835404028352916020019161260c565b820191906000526020600020905b8154815290600101906020018083116125ef57829003601f168201915b5050505050905090565b60606000600161262584612895565b01905060008167ffffffffffffffff81111561264457612643612fb1565b5b6040519080825280601f01601f1916602001820160405280156126765781602001600182028036833780820191505090505b509050600082602001820190505b6001156126d9578080600190039150507f3031323334353637383961626364656600000000000000000000000000000000600a86061a8153600a85816126cd576126cc614634565b5b04945060008503612684575b819350505050919050565b6126fe8282604051806020016040528060008152506129e8565b5050565b50505050565b50505050565b600061272f8473ffffffffffffffffffffffffffffffffffffffff16612a43565b15612888578373ffffffffffffffffffffffffffffffffffffffff1663150b7a02612758611eef565b8786866040518563ffffffff1660e01b815260040161277a94939291906146b8565b6020604051808303816000875af19250505080156127b657506040513d601f19601f820116820180604052508101906127b39190614719565b60015b612838573d80600081146127e6576040519150601f19603f3d011682016040523d82523d6000602084013e6127eb565b606091505b506000815103612830576040517f08c379a000000000000000000000000000000000000000000000000000000000815260040161282790614614565b60405180910390fd5b805181602001fd5b63150b7a0260e01b7bffffffffffffffffffffffffffffffffffffffffffffffffffffffff1916817bffffffffffffffffffffffffffffffffffffffffffffffffffffffff19161491505061288d565b600190505b949350505050565b600080600090507a184f03e93ff9f4daa797ed6e38ed64bf6a1f01000000000000000083106128f3577a184f03e93ff9f4daa797ed6e38ed64bf6a1f01000000000000000083816128e9576128e8614634565b5b0492506040810190505b6d04ee2d6d415b85acef81000000008310612930576d04ee2d6d415b85acef8100000000838161292657612925614634565b5b0492506020810190505b662386f26fc10000831061295f57662386f26fc10000838161295557612954614634565b5b0492506010810190505b6305f5e1008310612988576305f5e100838161297e5761297d614634565b5b0492506008810190505b61271083106129ad5761271083816129a3576129a2614634565b5b0492506004810190505b606483106129d057606483816129c6576129c5614634565b5b0492506002810190505b600a83106129df576001810190505b80915050919050565b6129f28383612a66565b6129ff600084848461270e565b612a3e576040517f08c379a0000000000000000000000000000000000000000000000000000000008152600401612a3590614614565b60405180910390fd5b505050565b6000808273ffffffffffffffffffffffffffffffffffffffff163b119050919050565b600073ffffffffffffffffffffffffffffffffffffffff168273ffffffffffffffffffffffffffffffffffffffff1603612ad5576040517f08c379a0000000000000000000000000000000000000000000000000000000008152600401612acc90614792565b60405180910390fd5b612ade81612543565b15612b1e576040517f08c379a0000000000000000000000000000000000000000000000000000000008152600401612b15906147fe565b60405180910390fd5b612b2c600083836001612702565b612b3581612543565b15612b75576040517f08c379a0000000000000000000000000000000000000000000000000000000008152600401612b6c906147fe565b60405180910390fd5b6001600360008473ffffffffffffffffffffffffffffffffffffffff1673ffffffffffffffffffffffffffffffffffffffff16815260200190815260200160002060008282540192505081905550816002600083815260200190815260200160002060006101000a81548173ffffffffffffffffffffffffffffffffffffffff021916908373ffffffffffffffffffffffffffffffffffffffff160217905550808273ffffffffffffffffffffffffffffffffffffffff16600073ffffffffffffffffffffffffffffffffffffffff167fddf252ad1be2c89b69c2b068fc378daa952ba7f163c4a11628f55a4df523b3ef60405160405180910390a4612c7f600083836001612708565b5050565b6000604051905090565b600080fd5b600080fd5b60007fffffffff0000000000000000000000000000000000000000000000000000000082169050919050565b612ccc81612c97565b8114612cd757600080fd5b50565b600081359050612ce981612cc3565b92915050565b600060208284031215612d0557612d04612c8d565b5b6000612d1384828501612cda565b91505092915050565b60008115159050919050565b612d3181612d1c565b82525050565b6000602082019050612d4c6000830184612d28565b92915050565b600081519050919050565b600082825260208201905092915050565b60005b83811015612d8c578082015181840152602081019050612d71565b60008484015250505050565b6000601f19601f8301169050919050565b6000612db482612d52565b612dbe8185612d5d565b9350612dce818560208601612d6e565b612dd781612d98565b840191505092915050565b60006020820190508181036000830152612dfc8184612da9565b905092915050565b6000819050919050565b612e1781612e04565b8114612e2257600080fd5b50565b600081359050612e3481612e0e565b92915050565b600060208284031215612e5057612e4f612c8d565b5b6000612e5e84828501612e25565b91505092915050565b600073ffffffffffffffffffffffffffffffffffffffff82169050919050565b6000612e9282612e67565b9050919050565b612ea281612e87565b82525050565b6000602082019050612ebd6000830184612e99565b92915050565b612ecc81612e87565b8114612ed757600080fd5b50565b600081359050612ee981612ec3565b92915050565b60008060408385031215612f0657612f05612c8d565b5b6000612f1485828601612eda565b9250506020612f2585828601612e25565b9150509250929050565b612f3881612e04565b82525050565b6000602082019050612f536000830184612f2f565b92915050565b600080600060608486031215612f7257612f71612c8d565b5b6000612f8086828701612eda565b9350506020612f9186828701612eda565b9250506040612fa286828701612e25565b9150509250925092565b600080fd5b7f4e487b7100000000000000000000000000000000000000000000000000000000600052604160045260246000fd5b612fe982612d98565b810181811067ffffffffffffffff8211171561300857613007612fb1565b5b80604052505050565b600061301b612c83565b90506130278282612fe0565b919050565b600067ffffffffffffffff82111561304757613046612fb1565b5b602082029050602081019050919050565b600080fd5b600061307061306b8461302c565b613011565b9050808382526020820190506020840283018581111561309357613092613058565b5b835b818110156130bc57806130a88882612e25565b845260208401935050602081019050613095565b5050509392505050565b600082601f8301126130db576130da612fac565b5b81356130eb84826020860161305d565b91505092915050565b600067ffffffffffffffff82111561310f5761310e612fb1565b5b602082029050602081019050919050565b600080fd5b600067ffffffffffffffff8211156131405761313f612fb1565b5b61314982612d98565b9050602081019050919050565b82818337600083830152505050565b600061317861317384613125565b613011565b90508281526020810184848401111561319457613193613120565b5b61319f848285613156565b509392505050565b600082601f8301126131bc576131bb612fac565b5b81356131cc848260208601613165565b91505092915050565b60006131e86131e3846130f4565b613011565b9050808382526020820190506020840283018581111561320b5761320a613058565b5b835b8181101561325257803567ffffffffffffffff8111156132305761322f612fac565b5b80860161323d89826131a7565b8552602085019450505060208101905061320d565b5050509392505050565b600082601f83011261327157613270612fac565b5b81356132818482602086016131d5565b91505092915050565b600080600080608085870312156132a4576132a3612c8d565b5b600085013567ffffffffffffffff8111156132c2576132c1612c92565b5b6132ce878288016130c6565b945050602085013567ffffffffffffffff8111156132ef576132ee612c92565b5b6132fb8782880161325c565b935050604085013567ffffffffffffffff81111561331c5761331b612c92565b5b6133288782880161325c565b925050606085013567ffffffffffffffff81111561334957613348612c92565b5b6133558782880161325c565b91505092959194509250565b6000806000806080858703121561337b5761337a612c8d565b5b600061338987828801612e25565b945050602085013567ffffffffffffffff8111156133aa576133a9612c92565b5b6133b6878288016131a7565b935050604085013567ffffffffffffffff8111156133d7576133d6612c92565b5b6133e3878288016131a7565b925050606085013567ffffffffffffffff81111561340457613403612c92565b5b613410878288016131a7565b91505092959194509250565b60006020828403121561343257613431612c8d565b5b600082013567ffffffffffffffff8111156134505761344f612c92565b5b61345c848285016131a7565b91505092915050565b600060a08201905061347a6000830188612f2f565b818103602083015261348c8187612da9565b905081810360408301526134a08186612da9565b905081810360608301526134b48185612da9565b90506134c36080830184612e99565b9695505050505050565b600067ffffffffffffffff8211156134e8576134e7612fb1565b5b602082029050602081019050919050565b600061350c613507846134cd565b613011565b9050808382526020820190506020840283018581111561352f5761352e613058565b5b835b8181101561355857806135448882612eda565b845260208401935050602081019050613531565b5050509392505050565b600082601f83011261357757613576612fac565b5b81356135878482602086016134f9565b91505092915050565b600080604083850312156135a7576135a6612c8d565b5b600083013567ffffffffffffffff8111156135c5576135c4612c92565b5b6135d185828601613562565b925050602083013567ffffffffffffffff8111156135f2576135f1612c92565b5b6135fe8582860161325c565b9150509250929050565b60006020828403121561361e5761361d612c8d565b5b600061362c84828501612eda565b91505092915050565b61363e81612d1c565b811461364957600080fd5b50565b60008135905061365b81613635565b92915050565b6000806040838503121561367857613677612c8d565b5b600061368685828601612eda565b92505060206136978582860161364c565b9150509250929050565b600067ffffffffffffffff8211156136bc576136bb612fb1565b5b6136c582612d98565b9050602081019050919050565b60006136e56136e0846136a1565b613011565b90508281526020810184848401111561370157613700613120565b5b61370c848285613156565b509392505050565b600082601f83011261372957613728612fac565b5b81356137398482602086016136d2565b91505092915050565b6000806000806080858703121561375c5761375b612c8d565b5b600061376a87828801612eda565b945050602061377b87828801612eda565b935050604061378c87828801612e25565b925050606085013567ffffffffffffffff8111156137ad576137ac612c92565b5b6137b987828801613714565b91505092959194509250565b600080604083850312156137dc576137db612c8d565b5b60006137ea85828601612eda565b925050602083013567ffffffffffffffff81111561380b5761380a612c92565b5b613817858286016131a7565b9150509250929050565b6000806040838503121561383857613837612c8d565b5b600061384685828601612eda565b925050602061385785828601612eda565b9150509250929050565b7f4e487b7100000000000000000000000000000000000000000000000000000000600052602260045260246000fd5b600060028204905060018216806138a857607f821691505b6020821081036138bb576138ba613861565b5b50919050565b7f4552433732313a20617070726f76616c20746f2063757272656e74206f776e6560008201527f7200000000000000000000000000000000000000000000000000000000000000602082015250565b600061391d602183612d5d565b9150613928826138c1565b604082019050919050565b6000602082019050818103600083015261394c81613910565b9050919050565b7f4552433732313a20617070726f76652063616c6c6572206973206e6f7420746f60008201527f6b656e206f776e6572206f7220617070726f76656420666f7220616c6c000000602082015250565b60006139af603d83612d5d565b91506139ba82613953565b604082019050919050565b600060208201905081810360008301526139de816139a2565b9050919050565b7f4552433732313a2063616c6c6572206973206e6f7420746f6b656e206f776e6560008201527f72206f7220617070726f76656400000000000000000000000000000000000000602082015250565b6000613a41602d83612d5d565b9150613a4c826139e5565b604082019050919050565b60006020820190508181036000830152613a7081613a34565b9050919050565b7f43616c6c6572206973206e6f742041646d696e00000000000000000000000000600082015250565b6000613aad601383612d5d565b9150613ab882613a77565b602082019050919050565b60006020820190508181036000830152613adc81613aa0565b9050919050565b7f417272617973206d757374206265206f66207468652073616d65206c656e677460008201527f6800000000000000000000000000000000000000000000000000000000000000602082015250565b6000613b3f602183612d5d565b9150613b4a82613ae3565b604082019050919050565b60006020820190508181036000830152613b6e81613b32565b9050919050565b7f4e487b7100000000000000000000000000000000000000000000000000000000600052603260045260246000fd5b600081905092915050565b6000613bba82612d52565b613bc48185613ba4565b9350613bd4818560208601612d6e565b80840191505092915050565b6000613bec8284613baf565b915081905092915050565b60008190508160005260206000209050919050565b60006020601f8301049050919050565b600082821b905092915050565b600060088302613c597fffffffffffffffffffffffffffffffffffffffffffffffffffffffffffffffff82613c1c565b613c638683613c1c565b95508019841693508086168417925050509392505050565b6000819050919050565b6000613ca0613c9b613c9684612e04565b613c7b565b612e04565b9050919050565b6000819050919050565b613cba83613c85565b613cce613cc682613ca7565b848454613c29565b825550505050565b600090565b613ce3613cd6565b613cee818484613cb1565b505050565b5b81811015613d1257613d07600082613cdb565b600181019050613cf4565b5050565b601f821115613d5757613d2881613bf7565b613d3184613c0c565b81016020851015613d40578190505b613d54613d4c85613c0c565b830182613cf3565b50505b505050565b600082821c905092915050565b6000613d7a60001984600802613d5c565b1980831691505092915050565b6000613d938383613d69565b9150826002028217905092915050565b613dac82612d52565b67ffffffffffffffff811115613dc557613dc4612fb1565b5b613dcf8254613890565b613dda828285613d16565b600060209050601f831160018114613e0d5760008415613dfb578287015190505b613e058582613d87565b865550613e6d565b601f198416613e1b86613bf7565b60005b82811015613e4357848901518255600182019150602085019450602081019050613e1e565b86831015613e605784890151613e5c601f891682613d69565b8355505b6001600288020188555050505b505050505050565b7f4e487b7100000000000000000000000000000000000000000000000000000000600052601160045260246000fd5b6000613eaf82612e04565b91507fffffffffffffffffffffffffffffffffffffffffffffffffffffffffffffffff8203613ee157613ee0613e75565b5b600182019050919050565b7f53747564656e742049442063616e6e6f74206265207a65726f00000000000000600082015250565b6000613f22601983612d5d565b9150613f2d82613eec565b602082019050919050565b60006020820190508181036000830152613f5181613f15565b9050919050565b7f53747564656e74206d7573742065786973740000000000000000000000000000600082015250565b6000613f8e601283612d5d565b9150613f9982613f58565b602082019050919050565b60006020820190508181036000830152613fbd81613f81565b9050919050565b7f4552433732313a20696e76616c696420746f6b656e2049440000000000000000600082015250565b6000613ffa601883612d5d565b915061400582613fc4565b602082019050919050565b6000602082019050818103600083015261402981613fed565b9050919050565b7f4552433732313a2061646472657373207a65726f206973206e6f74206120766160008201527f6c6964206f776e65720000000000000000000000000000000000000000000000602082015250565b600061408c602983612d5d565b915061409782614030565b604082019050919050565b600060208201905081810360008301526140bb8161407f565b9050919050565b7f4552433732314d657461646174613a2055524920717565727920666f72206e6f60008201527f6e6578697374656e7420746f6b656e0000000000000000000000000000000000602082015250565b600061411e602f83612d5d565b9150614129826140c2565b604082019050919050565b6000602082019050818103600083015261414d81614111565b9050919050565b6000815461416181613890565b61416b8186613ba4565b94506001821660008114614186576001811461419b576141ce565b60ff19831686528115158202860193506141ce565b6141a485613bf7565b60005b838110156141c6578154818901526001820191506020810190506141a7565b838801955050505b50505092915050565b60006141e38286613baf565b91506141ef8285613baf565b91506141fb8284614154565b9150819050949350505050565b7f53747564656e7420416464726573732063616e6e6f74206265206e756c6c0000600082015250565b600061423e601e83612d5d565b915061424982614208565b602082019050919050565b6000602082019050818103600083015261426d81614231565b9050919050565b60008154905061428381613890565b9050919050565b818103614298575050614370565b6142a182614274565b67ffffffffffffffff8111156142ba576142b9612fb1565b5b6142c48254613890565b6142cf828285613d16565b6000601f8311600181146142fe57600084156142ec578287015490505b6142f68582613d87565b865550614369565b601f19841661430c87613bf7565b965061431786613bf7565b60005b8281101561433f5784890154825560018201915060018501945060208101905061431a565b8683101561435c5784890154614358601f891682613d69565b8355505b6001600288020188555050505b5050505050505b565b600061437d82612e04565b915061438883612e04565b92508282019050808211156143a05761439f613e75565b5b92915050565b7f4e756c6c2076616c756573207265636569766564000000000000000000000000600082015250565b60006143dc601483612d5d565b91506143e7826143a6565b602082019050919050565b6000602082019050818103600083015261440b816143cf565b9050919050565b7f4552433732313a207472616e736665722066726f6d20696e636f72726563742060008201527f6f776e6572000000000000000000000000000000000000000000000000000000602082015250565b600061446e602583612d5d565b915061447982614412565b604082019050919050565b6000602082019050818103600083015261449d81614461565b9050919050565b7f4552433732313a207472616e7366657220746f20746865207a65726f2061646460008201527f7265737300000000000000000000000000000000000000000000000000000000602082015250565b6000614500602483612d5d565b915061450b826144a4565b604082019050919050565b6000602082019050818103600083015261452f816144f3565b9050919050565b7f4552433732313a20617070726f766520746f2063616c6c657200000000000000600082015250565b600061456c601983612d5d565b915061457782614536565b602082019050919050565b6000602082019050818103600083015261459b8161455f565b9050919050565b7f4552433732313a207472616e7366657220746f206e6f6e20455243373231526560008201527f63656976657220696d706c656d656e7465720000000000000000000000000000602082015250565b60006145fe603283612d5d565b9150614609826145a2565b604082019050919050565b6000602082019050818103600083015261462d816145f1565b9050919050565b7f4e487b7100000000000000000000000000000000000000000000000000000000600052601260045260246000fd5b600081519050919050565b600082825260208201905092915050565b600061468a82614663565b614694818561466e565b93506146a4818560208601612d6e565b6146ad81612d98565b840191505092915050565b60006080820190506146cd6000830187612e99565b6146da6020830186612e99565b6146e76040830185612f2f565b81810360608301526146f9818461467f565b905095945050505050565b60008151905061471381612cc3565b92915050565b60006020828403121561472f5761472e612c8d565b5b600061473d84828501614704565b91505092915050565b7f4552433732313a206d696e7420746f20746865207a65726f2061646472657373600082015250565b600061477c602083612d5d565b915061478782614746565b602082019050919050565b600060208201905081810360008301526147ab8161476f565b9050919050565b7f4552433732313a20746f6b656e20616c7265616479206d696e74656400000000600082015250565b60006147e8601c83612d5d565b91506147f3826147b2565b602082019050919050565b60006020820190508181036000830152614817816147db565b905091905056fea26469706673582212209c455e07b302eea5a21bc61a0eb46ac81ce7aecfafc355e26ef0f12d9e9fd98964736f6c63430008130033",
  "linkReferences": {},
  "deployedLinkReferences": {}
}